{
	"data": {
		"bytecode": {
			"linkReferences": {},
			"object": "60806040526040518060400160405280600581526020017f52464c585400000000000000000000000000000000000000000000000000000081525060029081610048919061061b565b506040518060400160405280600581526020017f52464c58540000000000000000000000000000000000000000000000000000008152506003908161008d919061061b565b50601260045f6101000a81548160ff021916908360ff1602179055503480156100b4575f80fd5b506040516134fb3803806134fb83398181016040528101906100d69190610772565b5f60015f6101000a81548160ff0219169083151502179055506101015f801b3361028260201b60201c565b506101327f9f2df0fed2c77648de5860a4cc508cd0818c85b8b8a1ab4ceeef8d981c8956a63361028260201b60201c565b506101637fe1dcbdb91df27212a29bc27177c840cf2f819ecf2187432e1fac86c2dd5dfca98261028260201b60201c565b508060065f6101000a81548173ffffffffffffffffffffffffffffffffffffffff021916908373ffffffffffffffffffffffffffffffffffffffff16021790555060045f9054906101000a900460ff16600a6101bf9190610918565b826101ca9190610962565b60058190555060055460075f3373ffffffffffffffffffffffffffffffffffffffff1673ffffffffffffffffffffffffffffffffffffffff1681526020019081526020015f20819055503373ffffffffffffffffffffffffffffffffffffffff165f73ffffffffffffffffffffffffffffffffffffffff167fddf252ad1be2c89b69c2b068fc378daa952ba7f163c4a11628f55a4df523b3ef60055460405161027391906109b2565b60405180910390a350506109cb565b5f610293838361037760201b60201c565b61036d5760015f808581526020019081526020015f205f015f8473ffffffffffffffffffffffffffffffffffffffff1673ffffffffffffffffffffffffffffffffffffffff1681526020019081526020015f205f6101000a81548160ff02191690831515021790555061030a6103da60201b60201c565b73ffffffffffffffffffffffffffffffffffffffff168273ffffffffffffffffffffffffffffffffffffffff16847f2f8788117e7eff1d82e926ec794901d17c78024a50270940304540a733656f0d60405160405180910390a460019050610371565b5f90505b92915050565b5f805f8481526020019081526020015f205f015f8373ffffffffffffffffffffffffffffffffffffffff1673ffffffffffffffffffffffffffffffffffffffff1681526020019081526020015f205f9054906101000a900460ff16905092915050565b5f33905090565b5f81519050919050565b7f4e487b71000000000000000000000000000000000000000000000000000000005f52604160045260245ffd5b7f4e487b71000000000000000000000000000000000000000000000000000000005f52602260045260245ffd5b5f600282049050600182168061045c57607f821691505b60208210810361046f5761046e610418565b5b50919050565b5f819050815f5260205f209050919050565b5f6020601f8301049050919050565b5f82821b905092915050565b5f600883026104d17fffffffffffffffffffffffffffffffffffffffffffffffffffffffffffffffff82610496565b6104db8683610496565b95508019841693508086168417925050509392505050565b5f819050919050565b5f819050919050565b5f61051f61051a610515846104f3565b6104fc565b6104f3565b9050919050565b5f819050919050565b61053883610505565b61054c61054482610526565b8484546104a2565b825550505050565b5f90565b610560610554565b61056b81848461052f565b505050565b5b8181101561058e576105835f82610558565b600181019050610571565b5050565b601f8211156105d3576105a481610475565b6105ad84610487565b810160208510156105bc578190505b6105d06105c885610487565b830182610570565b50505b505050565b5f82821c905092915050565b5f6105f35f19846008026105d8565b1980831691505092915050565b5f61060b83836105e4565b9150826002028217905092915050565b610624826103e1565b67ffffffffffffffff81111561063d5761063c6103eb565b5b6106478254610445565b610652828285610592565b5f60209050601f831160018114610683575f8415610671578287015190505b61067b8582610600565b8655506106e2565b601f19841661069186610475565b5f5b828110156106b857848901518255600182019150602085019450602081019050610693565b868310156106d557848901516106d1601f8916826105e4565b8355505b6001600288020188555050505b505050505050565b5f80fd5b6106f7816104f3565b8114610701575f80fd5b50565b5f81519050610712816106ee565b92915050565b5f73ffffffffffffffffffffffffffffffffffffffff82169050919050565b5f61074182610718565b9050919050565b61075181610737565b811461075b575f80fd5b50565b5f8151905061076c81610748565b92915050565b5f8060408385031215610788576107876106ea565b5b5f61079585828601610704565b92505060206107a68582860161075e565b9150509250929050565b7f4e487b71000000000000000000000000000000000000000000000000000000005f52601160045260245ffd5b5f8160011c9050919050565b5f808291508390505b60018511156108325780860481111561080e5761080d6107b0565b5b600185161561081d5780820291505b808102905061082b856107dd565b94506107f2565b94509492505050565b5f8261084a5760019050610905565b81610857575f9050610905565b816001811461086d5760028114610877576108a6565b6001915050610905565b60ff841115610889576108886107b0565b5b8360020a9150848211156108a05761089f6107b0565b5b50610905565b5060208310610133831016604e8410600b84101617156108db5782820a9050838111156108d6576108d56107b0565b5b610905565b6108e884848460016107e9565b925090508184048111156108ff576108fe6107b0565b5b81810290505b9392505050565b5f60ff82169050919050565b5f610922826104f3565b915061092d8361090c565b925061095a7fffffffffffffffffffffffffffffffffffffffffffffffffffffffffffffffff848461083b565b905092915050565b5f61096c826104f3565b9150610977836104f3565b9250828202610985816104f3565b9150828204841483151761099c5761099b6107b0565b5b5092915050565b6109ac816104f3565b82525050565b5f6020820190506109c55f8301846109a3565b92915050565b612b23806109d85f395ff3fe608060405234801561000f575f80fd5b50600436106101f9575f3560e01c806361d027b311610118578063a9059cbb116100ab578063d53913931161007a578063d53913931461059f578063d547741f146105bd578063d82e3962146105d9578063e574609e14610609578063e960554414610627576101f9565b8063a9059cbb14610505578063b384abef14610535578063d11a57ec14610551578063d3f730fd1461056f576101f9565b806395d89b41116100e757806395d89b411461047d5780639f2524ee1461049b578063a217fddf146104cb578063a694fc3a146104e9576101f9565b806361d027b3146103f557806370a08231146104135780638456cb591461044357806391d148541461044d576101f9565b8063313ce5671161019057806340c10f191161015f57806340c10f191461036f57806342966c681461038b5780635c975abb146103a757806360217267146103c5576101f9565b8063313ce5671461032157806336568abe1461033f578063372500ab1461035b5780633f4ba83a14610365576101f9565b8063248a9ca3116101cc578063248a9ca314610287578063265aa621146102b75780632e17de78146102e95780632f2ff15d14610305576101f9565b806301ffc9a7146101fd57806306fdde031461022d5780630d15fd771461024b57806318160ddd14610269575b5f80fd5b61021760048036038101906102129190611be8565b610643565b6040516102249190611c2d565b60405180910390f35b6102356106bc565b6040516102429190611cb6565b60405180910390f35b610253610748565b6040516102609190611cee565b60405180910390f35b61027161074e565b60405161027e9190611cee565b60405180910390f35b6102a1600480360381019061029c9190611d3a565b610754565b6040516102ae9190611d74565b60405180910390f35b6102d160048036038101906102cc9190611db7565b610770565b6040516102e093929190611de2565b60405180910390f35b61030360048036038101906102fe9190611db7565b6108ae565b005b61031f600480360381019061031a9190611e7f565b610a25565b005b610329610a47565b6040516103369190611ed8565b60405180910390f35b61035960048036038101906103549190611e7f565b610a59565b005b610363610ad4565b005b61036d610cec565b005b61038960048036038101906103849190611ef1565b610d03565b005b6103a560048036038101906103a09190611db7565b610e2c565b005b6103af610f68565b6040516103bc9190611c2d565b60405180910390f35b6103df60048036038101906103da9190611f2f565b610f7d565b6040516103ec9190611cee565b60405180910390f35b6103fd610f92565b60405161040a9190611f69565b60405180910390f35b61042d60048036038101906104289190611f2f565b610fb7565b60405161043a9190611cee565b60405180910390f35b61044b610fcc565b005b61046760048036038101906104629190611e7f565b610fe3565b6040516104749190611c2d565b60405180910390f35b610485611046565b6040516104929190611cb6565b60405180910390f35b6104b560048036038101906104b09190611ef1565b6110d2565b6040516104c29190611cee565b60405180910390f35b6104d36110f2565b6040516104e09190611d74565b60405180910390f35b61050360048036038101906104fe9190611db7565b6110f8565b005b61051f600480360381019061051a9190611ef1565b61126f565b60405161052c9190611c2d565b60405180910390f35b61054f600480360381019061054a9190611f82565b61140d565b005b61055961155b565b6040516105669190611d74565b60405180910390f35b61058960048036038101906105849190611f2f565b61157f565b6040516105969190611cee565b60405180910390f35b6105a7611594565b6040516105b49190611d74565b60405180910390f35b6105d760048036038101906105d29190611e7f565b6115b8565b005b6105f360048036038101906105ee9190611f2f565b6115da565b6040516106009190611cee565b60405180910390f35b610611611669565b60405161061e9190611cee565b60405180910390f35b610641600480360381019061063c91906120ec565b61166f565b005b5f7f7965db0b000000000000000000000000000000000000000000000000000000007bffffffffffffffffffffffffffffffffffffffffffffffffffffffff1916827bffffffffffffffffffffffffffffffffffffffffffffffffffffffff191614806106b557506106b482611786565b5b9050919050565b600280546106c99061218f565b80601f01602080910402602001604051908101604052809291908181526020018280546106f59061218f565b80156107405780601f1061071757610100808354040283529160200191610740565b820191905f5260205f20905b81548152906001019060200180831161072357829003601f168201915b505050505081565b600d5481565b60055481565b5f805f8381526020019081526020015f20600101549050919050565b600a602052805f5260405f205f91509050805f01805461078f9061218f565b80601f01602080910402602001604051908101604052809291908181526020018280546107bb9061218f565b80156108065780601f106107dd57610100808354040283529160200191610806565b820191905f5260205f20905b8154815290600101906020018083116107e957829003601f168201915b50505050509080600101805461081b9061218f565b80601f01602080910402602001604051908101604052809291908181526020018280546108479061218f565b80156108925780601f1061086957610100808354040283529160200191610892565b820191905f5260205f20905b81548152906001019060200180831161087557829003601f168201915b505050505090806002015f9054906101000a900460ff16905083565b8060085f3373ffffffffffffffffffffffffffffffffffffffff1673ffffffffffffffffffffffffffffffffffffffff1681526020019081526020015f2054101561092e576040517f08c379a000000000000000000000000000000000000000000000000000000000815260040161092590612209565b60405180910390fd5b8060085f3373ffffffffffffffffffffffffffffffffffffffff1673ffffffffffffffffffffffffffffffffffffffff1681526020019081526020015f205f82825461097a9190612254565b925050819055508060075f3373ffffffffffffffffffffffffffffffffffffffff1673ffffffffffffffffffffffffffffffffffffffff1681526020019081526020015f205f8282546109cd9190612287565b925050819055503373ffffffffffffffffffffffffffffffffffffffff167f85082129d87b2fe11527cb1b3b7a520aeb5aa6913f88a3d8757fe40d1db02fdd82604051610a1a9190611cee565b60405180910390a250565b610a2e82610754565b610a37816117ef565b610a418383611803565b50505050565b60045f9054906101000a900460ff1681565b610a616118ec565b73ffffffffffffffffffffffffffffffffffffffff168173ffffffffffffffffffffffffffffffffffffffff1614610ac5576040517f6697b23200000000000000000000000000000000000000000000000000000000815260040160405180910390fd5b610acf82826118f3565b505050565b5f610ade336115da565b90508060075f60065f9054906101000a900473ffffffffffffffffffffffffffffffffffffffff1673ffffffffffffffffffffffffffffffffffffffff1673ffffffffffffffffffffffffffffffffffffffff1681526020019081526020015f20541015610b81576040517f08c379a0000000000000000000000000000000000000000000000000000000008152600401610b7890612304565b60405180910390fd5b8060075f60065f9054906101000a900473ffffffffffffffffffffffffffffffffffffffff1673ffffffffffffffffffffffffffffffffffffffff1673ffffffffffffffffffffffffffffffffffffffff1681526020019081526020015f205f828254610bee9190612254565b925050819055508060075f3373ffffffffffffffffffffffffffffffffffffffff1673ffffffffffffffffffffffffffffffffffffffff1681526020019081526020015f205f828254610c419190612287565b925050819055508060095f3373ffffffffffffffffffffffffffffffffffffffff1673ffffffffffffffffffffffffffffffffffffffff1681526020019081526020015f205f828254610c949190612287565b925050819055503373ffffffffffffffffffffffffffffffffffffffff167fe2403640ba68fed3a2f88b7557551d1993f84b99bb10ff833f0cf8db0c5e048682604051610ce19190611cee565b60405180910390a250565b5f801b610cf8816117ef565b610d006119dc565b50565b7f9f2df0fed2c77648de5860a4cc508cd0818c85b8b8a1ab4ceeef8d981c8956a6610d2d816117ef565b5f60045f9054906101000a900460ff16600a610d499190612451565b83610d54919061249b565b90508060075f8673ffffffffffffffffffffffffffffffffffffffff1673ffffffffffffffffffffffffffffffffffffffff1681526020019081526020015f205f828254610da29190612287565b925050819055508060055f828254610dba9190612287565b925050819055508373ffffffffffffffffffffffffffffffffffffffff165f73ffffffffffffffffffffffffffffffffffffffff167fddf252ad1be2c89b69c2b068fc378daa952ba7f163c4a11628f55a4df523b3ef83604051610e1e9190611cee565b60405180910390a350505050565b8060075f3373ffffffffffffffffffffffffffffffffffffffff1673ffffffffffffffffffffffffffffffffffffffff1681526020019081526020015f20541015610eac576040517f08c379a0000000000000000000000000000000000000000000000000000000008152600401610ea390612526565b60405180910390fd5b8060075f3373ffffffffffffffffffffffffffffffffffffffff1673ffffffffffffffffffffffffffffffffffffffff1681526020019081526020015f205f828254610ef89190612254565b925050819055508060055f828254610f109190612254565b925050819055503373ffffffffffffffffffffffffffffffffffffffff167fcc16f5dbb4873280815c1ee09dbd06736cffcc184412cf7a71a0fdb75d397ca582604051610f5d9190611cee565b60405180910390a250565b5f60015f9054906101000a900460ff16905090565b6008602052805f5260405f205f915090505481565b60065f9054906101000a900473ffffffffffffffffffffffffffffffffffffffff1681565b6007602052805f5260405f205f915090505481565b5f801b610fd8816117ef565b610fe0611a3d565b50565b5f805f8481526020019081526020015f205f015f8373ffffffffffffffffffffffffffffffffffffffff1673ffffffffffffffffffffffffffffffffffffffff1681526020019081526020015f205f9054906101000a900460ff16905092915050565b600380546110539061218f565b80601f016020809104026020016040519081016040528092919081815260200182805461107f9061218f565b80156110ca5780601f106110a1576101008083540402835291602001916110ca565b820191905f5260205f20905b8154815290600101906020018083116110ad57829003601f168201915b505050505081565b600b602052815f5260405f20602052805f5260405f205f91509150505481565b5f801b81565b8060075f3373ffffffffffffffffffffffffffffffffffffffff1673ffffffffffffffffffffffffffffffffffffffff1681526020019081526020015f20541015611178576040517f08c379a000000000000000000000000000000000000000000000000000000000815260040161116f9061258e565b60405180910390fd5b8060075f3373ffffffffffffffffffffffffffffffffffffffff1673ffffffffffffffffffffffffffffffffffffffff1681526020019081526020015f205f8282546111c49190612254565b925050819055508060085f3373ffffffffffffffffffffffffffffffffffffffff1673ffffffffffffffffffffffffffffffffffffffff1681526020019081526020015f205f8282546112179190612287565b925050819055503373ffffffffffffffffffffffffffffffffffffffff167febedb8b3c678666e7f36970bc8f57abf6d8fa2e828c0da91ea5b75bf68ed101a826040516112649190611cee565b60405180910390a250565b5f611278611a9e565b8160075f3373ffffffffffffffffffffffffffffffffffffffff1673ffffffffffffffffffffffffffffffffffffffff1681526020019081526020015f205410156112f8576040517f08c379a00000000000000000000000000000000000000000000000000000000081526004016112ef906125f6565b60405180910390fd5b8160075f3373ffffffffffffffffffffffffffffffffffffffff1673ffffffffffffffffffffffffffffffffffffffff1681526020019081526020015f205f8282546113449190612254565b925050819055508160075f8573ffffffffffffffffffffffffffffffffffffffff1673ffffffffffffffffffffffffffffffffffffffff1681526020019081526020015f205f8282546113979190612287565b925050819055508273ffffffffffffffffffffffffffffffffffffffff163373ffffffffffffffffffffffffffffffffffffffff167fddf252ad1be2c89b69c2b068fc378daa952ba7f163c4a11628f55a4df523b3ef846040516113fb9190611cee565b60405180910390a36001905092915050565b8060075f3373ffffffffffffffffffffffffffffffffffffffff1673ffffffffffffffffffffffffffffffffffffffff1681526020019081526020015f2054101561148d576040517f08c379a00000000000000000000000000000000000000000000000000000000081526004016114849061265e565b60405180910390fd5b80600b5f3373ffffffffffffffffffffffffffffffffffffffff1673ffffffffffffffffffffffffffffffffffffffff1681526020019081526020015f205f8481526020019081526020015f205f8282546114e89190612287565b9250508190555080600d5f8282546115009190612287565b925050819055503373ffffffffffffffffffffffffffffffffffffffff167fea66f58e474bc09f580000e81f31b334d171db387d0c6098ba47bd897741679b838360405161154f92919061267c565b60405180910390a25050565b7fe1dcbdb91df27212a29bc27177c840cf2f819ecf2187432e1fac86c2dd5dfca981565b6009602052805f5260405f205f915090505481565b7f9f2df0fed2c77648de5860a4cc508cd0818c85b8b8a1ab4ceeef8d981c8956a681565b6115c182610754565b6115ca816117ef565b6115d483836118f3565b50505050565b5f80600590505f600a620f42406005546115f491906126d0565b6115fe91906126d0565b826116099190612254565b905060648160085f8773ffffffffffffffffffffffffffffffffffffffff1673ffffffffffffffffffffffffffffffffffffffff1681526020019081526020015f2054611656919061249b565b61166091906126d0565b92505050919050565b600c5481565b7f9f2df0fed2c77648de5860a4cc508cd0818c85b8b8a1ab4ceeef8d981c8956a6611699816117ef565b600c5f8154809291906116ab90612700565b9190505550604051806060016040528084815260200183815260200160011515815250600a5f600c5481526020019081526020015f205f820151815f0190816116f491906128e4565b50602082015181600101908161170a91906128e4565b506040820151816002015f6101000a81548160ff0219169083151502179055509050503373ffffffffffffffffffffffffffffffffffffffff167fe260f93729f4de5d60ff8d8ab8c7e6afc76218c4cc0f6f7e617398e20a358a2d600c548585604051611779939291906129b3565b60405180910390a2505050565b5f7f01ffc9a7000000000000000000000000000000000000000000000000000000007bffffffffffffffffffffffffffffffffffffffffffffffffffffffff1916827bffffffffffffffffffffffffffffffffffffffffffffffffffffffff1916149050919050565b611800816117fb6118ec565b611ae8565b50565b5f61180e8383610fe3565b6118e25760015f808581526020019081526020015f205f015f8473ffffffffffffffffffffffffffffffffffffffff1673ffffffffffffffffffffffffffffffffffffffff1681526020019081526020015f205f6101000a81548160ff02191690831515021790555061187f6118ec565b73ffffffffffffffffffffffffffffffffffffffff168273ffffffffffffffffffffffffffffffffffffffff16847f2f8788117e7eff1d82e926ec794901d17c78024a50270940304540a733656f0d60405160405180910390a4600190506118e6565b5f90505b92915050565b5f33905090565b5f6118fe8383610fe3565b156119d2575f805f8581526020019081526020015f205f015f8473ffffffffffffffffffffffffffffffffffffffff1673ffffffffffffffffffffffffffffffffffffffff1681526020019081526020015f205f6101000a81548160ff02191690831515021790555061196f6118ec565b73ffffffffffffffffffffffffffffffffffffffff168273ffffffffffffffffffffffffffffffffffffffff16847ff6391f5c32d9c69d2a47ea670b442974b53935d1edc7fd64eb21e047a839171b60405160405180910390a4600190506119d6565b5f90505b92915050565b6119e4611b39565b5f60015f6101000a81548160ff0219169083151502179055507f5db9ee0a495bf2e6ff9c91a7834c1ba4fdd244a5e8aa4e537bd38aeae4b073aa611a266118ec565b604051611a339190611f69565b60405180910390a1565b611a45611a9e565b6001805f6101000a81548160ff0219169083151502179055507f62e78cea01bee320cd4e420270b5ea74000d11b0c9f74754ebdbfc544b05a258611a876118ec565b604051611a949190611f69565b60405180910390a1565b611aa6610f68565b15611ae6576040517f08c379a0000000000000000000000000000000000000000000000000000000008152600401611add90612a40565b60405180910390fd5b565b611af28282610fe3565b611b355780826040517fe2517d3f000000000000000000000000000000000000000000000000000000008152600401611b2c929190612a5e565b60405180910390fd5b5050565b611b41610f68565b611b80576040517f08c379a0000000000000000000000000000000000000000000000000000000008152600401611b7790612acf565b60405180910390fd5b565b5f604051905090565b5f80fd5b5f80fd5b5f7fffffffff0000000000000000000000000000000000000000000000000000000082169050919050565b611bc781611b93565b8114611bd1575f80fd5b50565b5f81359050611be281611bbe565b92915050565b5f60208284031215611bfd57611bfc611b8b565b5b5f611c0a84828501611bd4565b91505092915050565b5f8115159050919050565b611c2781611c13565b82525050565b5f602082019050611c405f830184611c1e565b92915050565b5f81519050919050565b5f82825260208201905092915050565b8281835e5f83830152505050565b5f601f19601f8301169050919050565b5f611c8882611c46565b611c928185611c50565b9350611ca2818560208601611c60565b611cab81611c6e565b840191505092915050565b5f6020820190508181035f830152611cce8184611c7e565b905092915050565b5f819050919050565b611ce881611cd6565b82525050565b5f602082019050611d015f830184611cdf565b92915050565b5f819050919050565b611d1981611d07565b8114611d23575f80fd5b50565b5f81359050611d3481611d10565b92915050565b5f60208284031215611d4f57611d4e611b8b565b5b5f611d5c84828501611d26565b91505092915050565b611d6e81611d07565b82525050565b5f602082019050611d875f830184611d65565b92915050565b611d9681611cd6565b8114611da0575f80fd5b50565b5f81359050611db181611d8d565b92915050565b5f60208284031215611dcc57611dcb611b8b565b5b5f611dd984828501611da3565b91505092915050565b5f6060820190508181035f830152611dfa8186611c7e565b90508181036020830152611e0e8185611c7e565b9050611e1d6040830184611c1e565b949350505050565b5f73ffffffffffffffffffffffffffffffffffffffff82169050919050565b5f611e4e82611e25565b9050919050565b611e5e81611e44565b8114611e68575f80fd5b50565b5f81359050611e7981611e55565b92915050565b5f8060408385031215611e9557611e94611b8b565b5b5f611ea285828601611d26565b9250506020611eb385828601611e6b565b9150509250929050565b5f60ff82169050919050565b611ed281611ebd565b82525050565b5f602082019050611eeb5f830184611ec9565b92915050565b5f8060408385031215611f0757611f06611b8b565b5b5f611f1485828601611e6b565b9250506020611f2585828601611da3565b9150509250929050565b5f60208284031215611f4457611f43611b8b565b5b5f611f5184828501611e6b565b91505092915050565b611f6381611e44565b82525050565b5f602082019050611f7c5f830184611f5a565b92915050565b5f8060408385031215611f9857611f97611b8b565b5b5f611fa585828601611da3565b9250506020611fb685828601611da3565b9150509250929050565b5f80fd5b5f80fd5b7f4e487b71000000000000000000000000000000000000000000000000000000005f52604160045260245ffd5b611ffe82611c6e565b810181811067ffffffffffffffff8211171561201d5761201c611fc8565b5b80604052505050565b5f61202f611b82565b905061203b8282611ff5565b919050565b5f67ffffffffffffffff82111561205a57612059611fc8565b5b61206382611c6e565b9050602081019050919050565b828183375f83830152505050565b5f61209061208b84612040565b612026565b9050828152602081018484840111156120ac576120ab611fc4565b5b6120b7848285612070565b509392505050565b5f82601f8301126120d3576120d2611fc0565b5b81356120e384826020860161207e565b91505092915050565b5f806040838503121561210257612101611b8b565b5b5f83013567ffffffffffffffff81111561211f5761211e611b8f565b5b61212b858286016120bf565b925050602083013567ffffffffffffffff81111561214c5761214b611b8f565b5b612158858286016120bf565b9150509250929050565b7f4e487b71000000000000000000000000000000000000000000000000000000005f52602260045260245ffd5b5f60028204905060018216806121a657607f821691505b6020821081036121b9576121b8612162565b5b50919050565b7f496e73756666696369656e74207374616b65642062616c616e636500000000005f82015250565b5f6121f3601b83611c50565b91506121fe826121bf565b602082019050919050565b5f6020820190508181035f830152612220816121e7565b9050919050565b7f4e487b71000000000000000000000000000000000000000000000000000000005f52601160045260245ffd5b5f61225e82611cd6565b915061226983611cd6565b925082820390508181111561228157612280612227565b5b92915050565b5f61229182611cd6565b915061229c83611cd6565b92508282019050808211156122b4576122b3612227565b5b92915050565b7f54726561737572792062616c616e636520696e73756666696369656e740000005f82015250565b5f6122ee601d83611c50565b91506122f9826122ba565b602082019050919050565b5f6020820190508181035f83015261231b816122e2565b9050919050565b5f8160011c9050919050565b5f808291508390505b60018511156123775780860481111561235357612352612227565b5b60018516156123625780820291505b808102905061237085612322565b9450612337565b94509492505050565b5f8261238f576001905061244a565b8161239c575f905061244a565b81600181146123b257600281146123bc576123eb565b600191505061244a565b60ff8411156123ce576123cd612227565b5b8360020a9150848211156123e5576123e4612227565b5b5061244a565b5060208310610133831016604e8410600b84101617156124205782820a90508381111561241b5761241a612227565b5b61244a565b61242d848484600161232e565b9250905081840481111561244457612443612227565b5b81810290505b9392505050565b5f61245b82611cd6565b915061246683611ebd565b92506124937fffffffffffffffffffffffffffffffffffffffffffffffffffffffffffffffff8484612380565b905092915050565b5f6124a582611cd6565b91506124b083611cd6565b92508282026124be81611cd6565b915082820484148315176124d5576124d4612227565b5b5092915050565b7f496e73756666696369656e742062616c616e636520746f206275726e000000005f82015250565b5f612510601c83611c50565b915061251b826124dc565b602082019050919050565b5f6020820190508181035f83015261253d81612504565b9050919050565b7f496e73756666696369656e742062616c616e636520746f207374616b650000005f82015250565b5f612578601d83611c50565b915061258382612544565b602082019050919050565b5f6020820190508181035f8301526125a58161256c565b9050919050565b7f496e73756666696369656e742062616c616e63650000000000000000000000005f82015250565b5f6125e0601483611c50565b91506125eb826125ac565b602082019050919050565b5f6020820190508181035f83015261260d816125d4565b9050919050565b7f496e73756666696369656e7420746f6b656e7320746f20766f746500000000005f82015250565b5f612648601b83611c50565b915061265382612614565b602082019050919050565b5f6020820190508181035f8301526126758161263c565b9050919050565b5f60408201905061268f5f830185611cdf565b61269c6020830184611cdf565b9392505050565b7f4e487b71000000000000000000000000000000000000000000000000000000005f52601260045260245ffd5b5f6126da82611cd6565b91506126e583611cd6565b9250826126f5576126f46126a3565b5b828204905092915050565b5f61270a82611cd6565b91507fffffffffffffffffffffffffffffffffffffffffffffffffffffffffffffffff820361273c5761273b612227565b5b600182019050919050565b5f819050815f5260205f209050919050565b5f6020601f8301049050919050565b5f82821b905092915050565b5f600883026127a37fffffffffffffffffffffffffffffffffffffffffffffffffffffffffffffffff82612768565b6127ad8683612768565b95508019841693508086168417925050509392505050565b5f819050919050565b5f6127e86127e36127de84611cd6565b6127c5565b611cd6565b9050919050565b5f819050919050565b612801836127ce565b61281561280d826127ef565b848454612774565b825550505050565b5f90565b61282961281d565b6128348184846127f8565b505050565b5b818110156128575761284c5f82612821565b60018101905061283a565b5050565b601f82111561289c5761286d81612747565b61287684612759565b81016020851015612885578190505b61289961289185612759565b830182612839565b50505b505050565b5f82821c905092915050565b5f6128bc5f19846008026128a1565b1980831691505092915050565b5f6128d483836128ad565b9150826002028217905092915050565b6128ed82611c46565b67ffffffffffffffff81111561290657612905611fc8565b5b612910825461218f565b61291b82828561285b565b5f60209050601f83116001811461294c575f841561293a578287015190505b61294485826128c9565b8655506129ab565b601f19841661295a86612747565b5f5b828110156129815784890151825560018201915060208501945060208101905061295c565b8683101561299e578489015161299a601f8916826128ad565b8355505b6001600288020188555050505b505050505050565b5f6060820190506129c65f830186611cdf565b81810360208301526129d88185611c7e565b905081810360408301526129ec8184611c7e565b9050949350505050565b7f5061757361626c653a20706175736564000000000000000000000000000000005f82015250565b5f612a2a601083611c50565b9150612a35826129f6565b602082019050919050565b5f6020820190508181035f830152612a5781612a1e565b9050919050565b5f604082019050612a715f830185611f5a565b612a7e6020830184611d65565b9392505050565b7f5061757361626c653a206e6f74207061757365640000000000000000000000005f82015250565b5f612ab9601483611c50565b9150612ac482612a85565b602082019050919050565b5f6020820190508181035f830152612ae681612aad565b905091905056fea2646970667358221220f6394976ad6df3cae1b51011b2ad02802d321385ea28a0426a3f6b03a4a2e61a64736f6c634300081a0033",
			"opcodes": "PUSH1 0x80 PUSH1 0x40 MSTORE PUSH1 0x40 MLOAD DUP1 PUSH1 0x40 ADD PUSH1 0x40 MSTORE DUP1 PUSH1 0x5 DUP2 MSTORE PUSH1 0x20 ADD PUSH32 0x52464C5854000000000000000000000000000000000000000000000000000000 DUP2 MSTORE POP PUSH1 0x2 SWAP1 DUP2 PUSH2 0x48 SWAP2 SWAP1 PUSH2 0x61B JUMP JUMPDEST POP PUSH1 0x40 MLOAD DUP1 PUSH1 0x40 ADD PUSH1 0x40 MSTORE DUP1 PUSH1 0x5 DUP2 MSTORE PUSH1 0x20 ADD PUSH32 0x52464C5854000000000000000000000000000000000000000000000000000000 DUP2 MSTORE POP PUSH1 0x3 SWAP1 DUP2 PUSH2 0x8D SWAP2 SWAP1 PUSH2 0x61B JUMP JUMPDEST POP PUSH1 0x12 PUSH1 0x4 PUSH0 PUSH2 0x100 EXP DUP2 SLOAD DUP2 PUSH1 0xFF MUL NOT AND SWAP1 DUP4 PUSH1 0xFF AND MUL OR SWAP1 SSTORE POP CALLVALUE DUP1 ISZERO PUSH2 0xB4 JUMPI PUSH0 DUP1 REVERT JUMPDEST POP PUSH1 0x40 MLOAD PUSH2 0x34FB CODESIZE SUB DUP1 PUSH2 0x34FB DUP4 CODECOPY DUP2 DUP2 ADD PUSH1 0x40 MSTORE DUP2 ADD SWAP1 PUSH2 0xD6 SWAP2 SWAP1 PUSH2 0x772 JUMP JUMPDEST PUSH0 PUSH1 0x1 PUSH0 PUSH2 0x100 EXP DUP2 SLOAD DUP2 PUSH1 0xFF MUL NOT AND SWAP1 DUP4 ISZERO ISZERO MUL OR SWAP1 SSTORE POP PUSH2 0x101 PUSH0 DUP1 SHL CALLER PUSH2 0x282 PUSH1 0x20 SHL PUSH1 0x20 SHR JUMP JUMPDEST POP PUSH2 0x132 PUSH32 0x9F2DF0FED2C77648DE5860A4CC508CD0818C85B8B8A1AB4CEEEF8D981C8956A6 CALLER PUSH2 0x282 PUSH1 0x20 SHL PUSH1 0x20 SHR JUMP JUMPDEST POP PUSH2 0x163 PUSH32 0xE1DCBDB91DF27212A29BC27177C840CF2F819ECF2187432E1FAC86C2DD5DFCA9 DUP3 PUSH2 0x282 PUSH1 0x20 SHL PUSH1 0x20 SHR JUMP JUMPDEST POP DUP1 PUSH1 0x6 PUSH0 PUSH2 0x100 EXP DUP2 SLOAD DUP2 PUSH20 0xFFFFFFFFFFFFFFFFFFFFFFFFFFFFFFFFFFFFFFFF MUL NOT AND SWAP1 DUP4 PUSH20 0xFFFFFFFFFFFFFFFFFFFFFFFFFFFFFFFFFFFFFFFF AND MUL OR SWAP1 SSTORE POP PUSH1 0x4 PUSH0 SWAP1 SLOAD SWAP1 PUSH2 0x100 EXP SWAP1 DIV PUSH1 0xFF AND PUSH1 0xA PUSH2 0x1BF SWAP2 SWAP1 PUSH2 0x918 JUMP JUMPDEST DUP3 PUSH2 0x1CA SWAP2 SWAP1 PUSH2 0x962 JUMP JUMPDEST PUSH1 0x5 DUP2 SWAP1 SSTORE POP PUSH1 0x5 SLOAD PUSH1 0x7 PUSH0 CALLER PUSH20 0xFFFFFFFFFFFFFFFFFFFFFFFFFFFFFFFFFFFFFFFF AND PUSH20 0xFFFFFFFFFFFFFFFFFFFFFFFFFFFFFFFFFFFFFFFF AND DUP2 MSTORE PUSH1 0x20 ADD SWAP1 DUP2 MSTORE PUSH1 0x20 ADD PUSH0 KECCAK256 DUP2 SWAP1 SSTORE POP CALLER PUSH20 0xFFFFFFFFFFFFFFFFFFFFFFFFFFFFFFFFFFFFFFFF AND PUSH0 PUSH20 0xFFFFFFFFFFFFFFFFFFFFFFFFFFFFFFFFFFFFFFFF AND PUSH32 0xDDF252AD1BE2C89B69C2B068FC378DAA952BA7F163C4A11628F55A4DF523B3EF PUSH1 0x5 SLOAD PUSH1 0x40 MLOAD PUSH2 0x273 SWAP2 SWAP1 PUSH2 0x9B2 JUMP JUMPDEST PUSH1 0x40 MLOAD DUP1 SWAP2 SUB SWAP1 LOG3 POP POP PUSH2 0x9CB JUMP JUMPDEST PUSH0 PUSH2 0x293 DUP4 DUP4 PUSH2 0x377 PUSH1 0x20 SHL PUSH1 0x20 SHR JUMP JUMPDEST PUSH2 0x36D JUMPI PUSH1 0x1 PUSH0 DUP1 DUP6 DUP2 MSTORE PUSH1 0x20 ADD SWAP1 DUP2 MSTORE PUSH1 0x20 ADD PUSH0 KECCAK256 PUSH0 ADD PUSH0 DUP5 PUSH20 0xFFFFFFFFFFFFFFFFFFFFFFFFFFFFFFFFFFFFFFFF AND PUSH20 0xFFFFFFFFFFFFFFFFFFFFFFFFFFFFFFFFFFFFFFFF AND DUP2 MSTORE PUSH1 0x20 ADD SWAP1 DUP2 MSTORE PUSH1 0x20 ADD PUSH0 KECCAK256 PUSH0 PUSH2 0x100 EXP DUP2 SLOAD DUP2 PUSH1 0xFF MUL NOT AND SWAP1 DUP4 ISZERO ISZERO MUL OR SWAP1 SSTORE POP PUSH2 0x30A PUSH2 0x3DA PUSH1 0x20 SHL PUSH1 0x20 SHR JUMP JUMPDEST PUSH20 0xFFFFFFFFFFFFFFFFFFFFFFFFFFFFFFFFFFFFFFFF AND DUP3 PUSH20 0xFFFFFFFFFFFFFFFFFFFFFFFFFFFFFFFFFFFFFFFF AND DUP5 PUSH32 0x2F8788117E7EFF1D82E926EC794901D17C78024A50270940304540A733656F0D PUSH1 0x40 MLOAD PUSH1 0x40 MLOAD DUP1 SWAP2 SUB SWAP1 LOG4 PUSH1 0x1 SWAP1 POP PUSH2 0x371 JUMP JUMPDEST PUSH0 SWAP1 POP JUMPDEST SWAP3 SWAP2 POP POP JUMP JUMPDEST PUSH0 DUP1 PUSH0 DUP5 DUP2 MSTORE PUSH1 0x20 ADD SWAP1 DUP2 MSTORE PUSH1 0x20 ADD PUSH0 KECCAK256 PUSH0 ADD PUSH0 DUP4 PUSH20 0xFFFFFFFFFFFFFFFFFFFFFFFFFFFFFFFFFFFFFFFF AND PUSH20 0xFFFFFFFFFFFFFFFFFFFFFFFFFFFFFFFFFFFFFFFF AND DUP2 MSTORE PUSH1 0x20 ADD SWAP1 DUP2 MSTORE PUSH1 0x20 ADD PUSH0 KECCAK256 PUSH0 SWAP1 SLOAD SWAP1 PUSH2 0x100 EXP SWAP1 DIV PUSH1 0xFF AND SWAP1 POP SWAP3 SWAP2 POP POP JUMP JUMPDEST PUSH0 CALLER SWAP1 POP SWAP1 JUMP JUMPDEST PUSH0 DUP2 MLOAD SWAP1 POP SWAP2 SWAP1 POP JUMP JUMPDEST PUSH32 0x4E487B7100000000000000000000000000000000000000000000000000000000 PUSH0 MSTORE PUSH1 0x41 PUSH1 0x4 MSTORE PUSH1 0x24 PUSH0 REVERT JUMPDEST PUSH32 0x4E487B7100000000000000000000000000000000000000000000000000000000 PUSH0 MSTORE PUSH1 0x22 PUSH1 0x4 MSTORE PUSH1 0x24 PUSH0 REVERT JUMPDEST PUSH0 PUSH1 0x2 DUP3 DIV SWAP1 POP PUSH1 0x1 DUP3 AND DUP1 PUSH2 0x45C JUMPI PUSH1 0x7F DUP3 AND SWAP2 POP JUMPDEST PUSH1 0x20 DUP3 LT DUP2 SUB PUSH2 0x46F JUMPI PUSH2 0x46E PUSH2 0x418 JUMP JUMPDEST JUMPDEST POP SWAP2 SWAP1 POP JUMP JUMPDEST PUSH0 DUP2 SWAP1 POP DUP2 PUSH0 MSTORE PUSH1 0x20 PUSH0 KECCAK256 SWAP1 POP SWAP2 SWAP1 POP JUMP JUMPDEST PUSH0 PUSH1 0x20 PUSH1 0x1F DUP4 ADD DIV SWAP1 POP SWAP2 SWAP1 POP JUMP JUMPDEST PUSH0 DUP3 DUP3 SHL SWAP1 POP SWAP3 SWAP2 POP POP JUMP JUMPDEST PUSH0 PUSH1 0x8 DUP4 MUL PUSH2 0x4D1 PUSH32 0xFFFFFFFFFFFFFFFFFFFFFFFFFFFFFFFFFFFFFFFFFFFFFFFFFFFFFFFFFFFFFFFF DUP3 PUSH2 0x496 JUMP JUMPDEST PUSH2 0x4DB DUP7 DUP4 PUSH2 0x496 JUMP JUMPDEST SWAP6 POP DUP1 NOT DUP5 AND SWAP4 POP DUP1 DUP7 AND DUP5 OR SWAP3 POP POP POP SWAP4 SWAP3 POP POP POP JUMP JUMPDEST PUSH0 DUP2 SWAP1 POP SWAP2 SWAP1 POP JUMP JUMPDEST PUSH0 DUP2 SWAP1 POP SWAP2 SWAP1 POP JUMP JUMPDEST PUSH0 PUSH2 0x51F PUSH2 0x51A PUSH2 0x515 DUP5 PUSH2 0x4F3 JUMP JUMPDEST PUSH2 0x4FC JUMP JUMPDEST PUSH2 0x4F3 JUMP JUMPDEST SWAP1 POP SWAP2 SWAP1 POP JUMP JUMPDEST PUSH0 DUP2 SWAP1 POP SWAP2 SWAP1 POP JUMP JUMPDEST PUSH2 0x538 DUP4 PUSH2 0x505 JUMP JUMPDEST PUSH2 0x54C PUSH2 0x544 DUP3 PUSH2 0x526 JUMP JUMPDEST DUP5 DUP5 SLOAD PUSH2 0x4A2 JUMP JUMPDEST DUP3 SSTORE POP POP POP POP JUMP JUMPDEST PUSH0 SWAP1 JUMP JUMPDEST PUSH2 0x560 PUSH2 0x554 JUMP JUMPDEST PUSH2 0x56B DUP2 DUP5 DUP5 PUSH2 0x52F JUMP JUMPDEST POP POP POP JUMP JUMPDEST JUMPDEST DUP2 DUP2 LT ISZERO PUSH2 0x58E JUMPI PUSH2 0x583 PUSH0 DUP3 PUSH2 0x558 JUMP JUMPDEST PUSH1 0x1 DUP2 ADD SWAP1 POP PUSH2 0x571 JUMP JUMPDEST POP POP JUMP JUMPDEST PUSH1 0x1F DUP3 GT ISZERO PUSH2 0x5D3 JUMPI PUSH2 0x5A4 DUP2 PUSH2 0x475 JUMP JUMPDEST PUSH2 0x5AD DUP5 PUSH2 0x487 JUMP JUMPDEST DUP2 ADD PUSH1 0x20 DUP6 LT ISZERO PUSH2 0x5BC JUMPI DUP2 SWAP1 POP JUMPDEST PUSH2 0x5D0 PUSH2 0x5C8 DUP6 PUSH2 0x487 JUMP JUMPDEST DUP4 ADD DUP3 PUSH2 0x570 JUMP JUMPDEST POP POP JUMPDEST POP POP POP JUMP JUMPDEST PUSH0 DUP3 DUP3 SHR SWAP1 POP SWAP3 SWAP2 POP POP JUMP JUMPDEST PUSH0 PUSH2 0x5F3 PUSH0 NOT DUP5 PUSH1 0x8 MUL PUSH2 0x5D8 JUMP JUMPDEST NOT DUP1 DUP4 AND SWAP2 POP POP SWAP3 SWAP2 POP POP JUMP JUMPDEST PUSH0 PUSH2 0x60B DUP4 DUP4 PUSH2 0x5E4 JUMP JUMPDEST SWAP2 POP DUP3 PUSH1 0x2 MUL DUP3 OR SWAP1 POP SWAP3 SWAP2 POP POP JUMP JUMPDEST PUSH2 0x624 DUP3 PUSH2 0x3E1 JUMP JUMPDEST PUSH8 0xFFFFFFFFFFFFFFFF DUP2 GT ISZERO PUSH2 0x63D JUMPI PUSH2 0x63C PUSH2 0x3EB JUMP JUMPDEST JUMPDEST PUSH2 0x647 DUP3 SLOAD PUSH2 0x445 JUMP JUMPDEST PUSH2 0x652 DUP3 DUP3 DUP6 PUSH2 0x592 JUMP JUMPDEST PUSH0 PUSH1 0x20 SWAP1 POP PUSH1 0x1F DUP4 GT PUSH1 0x1 DUP2 EQ PUSH2 0x683 JUMPI PUSH0 DUP5 ISZERO PUSH2 0x671 JUMPI DUP3 DUP8 ADD MLOAD SWAP1 POP JUMPDEST PUSH2 0x67B DUP6 DUP3 PUSH2 0x600 JUMP JUMPDEST DUP7 SSTORE POP PUSH2 0x6E2 JUMP JUMPDEST PUSH1 0x1F NOT DUP5 AND PUSH2 0x691 DUP7 PUSH2 0x475 JUMP JUMPDEST PUSH0 JUMPDEST DUP3 DUP2 LT ISZERO PUSH2 0x6B8 JUMPI DUP5 DUP10 ADD MLOAD DUP3 SSTORE PUSH1 0x1 DUP3 ADD SWAP2 POP PUSH1 0x20 DUP6 ADD SWAP5 POP PUSH1 0x20 DUP2 ADD SWAP1 POP PUSH2 0x693 JUMP JUMPDEST DUP7 DUP4 LT ISZERO PUSH2 0x6D5 JUMPI DUP5 DUP10 ADD MLOAD PUSH2 0x6D1 PUSH1 0x1F DUP10 AND DUP3 PUSH2 0x5E4 JUMP JUMPDEST DUP4 SSTORE POP JUMPDEST PUSH1 0x1 PUSH1 0x2 DUP9 MUL ADD DUP9 SSTORE POP POP POP JUMPDEST POP POP POP POP POP POP JUMP JUMPDEST PUSH0 DUP1 REVERT JUMPDEST PUSH2 0x6F7 DUP2 PUSH2 0x4F3 JUMP JUMPDEST DUP2 EQ PUSH2 0x701 JUMPI PUSH0 DUP1 REVERT JUMPDEST POP JUMP JUMPDEST PUSH0 DUP2 MLOAD SWAP1 POP PUSH2 0x712 DUP2 PUSH2 0x6EE JUMP JUMPDEST SWAP3 SWAP2 POP POP JUMP JUMPDEST PUSH0 PUSH20 0xFFFFFFFFFFFFFFFFFFFFFFFFFFFFFFFFFFFFFFFF DUP3 AND SWAP1 POP SWAP2 SWAP1 POP JUMP JUMPDEST PUSH0 PUSH2 0x741 DUP3 PUSH2 0x718 JUMP JUMPDEST SWAP1 POP SWAP2 SWAP1 POP JUMP JUMPDEST PUSH2 0x751 DUP2 PUSH2 0x737 JUMP JUMPDEST DUP2 EQ PUSH2 0x75B JUMPI PUSH0 DUP1 REVERT JUMPDEST POP JUMP JUMPDEST PUSH0 DUP2 MLOAD SWAP1 POP PUSH2 0x76C DUP2 PUSH2 0x748 JUMP JUMPDEST SWAP3 SWAP2 POP POP JUMP JUMPDEST PUSH0 DUP1 PUSH1 0x40 DUP4 DUP6 SUB SLT ISZERO PUSH2 0x788 JUMPI PUSH2 0x787 PUSH2 0x6EA JUMP JUMPDEST JUMPDEST PUSH0 PUSH2 0x795 DUP6 DUP3 DUP7 ADD PUSH2 0x704 JUMP JUMPDEST SWAP3 POP POP PUSH1 0x20 PUSH2 0x7A6 DUP6 DUP3 DUP7 ADD PUSH2 0x75E JUMP JUMPDEST SWAP2 POP POP SWAP3 POP SWAP3 SWAP1 POP JUMP JUMPDEST PUSH32 0x4E487B7100000000000000000000000000000000000000000000000000000000 PUSH0 MSTORE PUSH1 0x11 PUSH1 0x4 MSTORE PUSH1 0x24 PUSH0 REVERT JUMPDEST PUSH0 DUP2 PUSH1 0x1 SHR SWAP1 POP SWAP2 SWAP1 POP JUMP JUMPDEST PUSH0 DUP1 DUP3 SWAP2 POP DUP4 SWAP1 POP JUMPDEST PUSH1 0x1 DUP6 GT ISZERO PUSH2 0x832 JUMPI DUP1 DUP7 DIV DUP2 GT ISZERO PUSH2 0x80E JUMPI PUSH2 0x80D PUSH2 0x7B0 JUMP JUMPDEST JUMPDEST PUSH1 0x1 DUP6 AND ISZERO PUSH2 0x81D JUMPI DUP1 DUP3 MUL SWAP2 POP JUMPDEST DUP1 DUP2 MUL SWAP1 POP PUSH2 0x82B DUP6 PUSH2 0x7DD JUMP JUMPDEST SWAP5 POP PUSH2 0x7F2 JUMP JUMPDEST SWAP5 POP SWAP5 SWAP3 POP POP POP JUMP JUMPDEST PUSH0 DUP3 PUSH2 0x84A JUMPI PUSH1 0x1 SWAP1 POP PUSH2 0x905 JUMP JUMPDEST DUP2 PUSH2 0x857 JUMPI PUSH0 SWAP1 POP PUSH2 0x905 JUMP JUMPDEST DUP2 PUSH1 0x1 DUP2 EQ PUSH2 0x86D JUMPI PUSH1 0x2 DUP2 EQ PUSH2 0x877 JUMPI PUSH2 0x8A6 JUMP JUMPDEST PUSH1 0x1 SWAP2 POP POP PUSH2 0x905 JUMP JUMPDEST PUSH1 0xFF DUP5 GT ISZERO PUSH2 0x889 JUMPI PUSH2 0x888 PUSH2 0x7B0 JUMP JUMPDEST JUMPDEST DUP4 PUSH1 0x2 EXP SWAP2 POP DUP5 DUP3 GT ISZERO PUSH2 0x8A0 JUMPI PUSH2 0x89F PUSH2 0x7B0 JUMP JUMPDEST JUMPDEST POP PUSH2 0x905 JUMP JUMPDEST POP PUSH1 0x20 DUP4 LT PUSH2 0x133 DUP4 LT AND PUSH1 0x4E DUP5 LT PUSH1 0xB DUP5 LT AND OR ISZERO PUSH2 0x8DB JUMPI DUP3 DUP3 EXP SWAP1 POP DUP4 DUP2 GT ISZERO PUSH2 0x8D6 JUMPI PUSH2 0x8D5 PUSH2 0x7B0 JUMP JUMPDEST JUMPDEST PUSH2 0x905 JUMP JUMPDEST PUSH2 0x8E8 DUP5 DUP5 DUP5 PUSH1 0x1 PUSH2 0x7E9 JUMP JUMPDEST SWAP3 POP SWAP1 POP DUP2 DUP5 DIV DUP2 GT ISZERO PUSH2 0x8FF JUMPI PUSH2 0x8FE PUSH2 0x7B0 JUMP JUMPDEST JUMPDEST DUP2 DUP2 MUL SWAP1 POP JUMPDEST SWAP4 SWAP3 POP POP POP JUMP JUMPDEST PUSH0 PUSH1 0xFF DUP3 AND SWAP1 POP SWAP2 SWAP1 POP JUMP JUMPDEST PUSH0 PUSH2 0x922 DUP3 PUSH2 0x4F3 JUMP JUMPDEST SWAP2 POP PUSH2 0x92D DUP4 PUSH2 0x90C JUMP JUMPDEST SWAP3 POP PUSH2 0x95A PUSH32 0xFFFFFFFFFFFFFFFFFFFFFFFFFFFFFFFFFFFFFFFFFFFFFFFFFFFFFFFFFFFFFFFF DUP5 DUP5 PUSH2 0x83B JUMP JUMPDEST SWAP1 POP SWAP3 SWAP2 POP POP JUMP JUMPDEST PUSH0 PUSH2 0x96C DUP3 PUSH2 0x4F3 JUMP JUMPDEST SWAP2 POP PUSH2 0x977 DUP4 PUSH2 0x4F3 JUMP JUMPDEST SWAP3 POP DUP3 DUP3 MUL PUSH2 0x985 DUP2 PUSH2 0x4F3 JUMP JUMPDEST SWAP2 POP DUP3 DUP3 DIV DUP5 EQ DUP4 ISZERO OR PUSH2 0x99C JUMPI PUSH2 0x99B PUSH2 0x7B0 JUMP JUMPDEST JUMPDEST POP SWAP3 SWAP2 POP POP JUMP JUMPDEST PUSH2 0x9AC DUP2 PUSH2 0x4F3 JUMP JUMPDEST DUP3 MSTORE POP POP JUMP JUMPDEST PUSH0 PUSH1 0x20 DUP3 ADD SWAP1 POP PUSH2 0x9C5 PUSH0 DUP4 ADD DUP5 PUSH2 0x9A3 JUMP JUMPDEST SWAP3 SWAP2 POP POP JUMP JUMPDEST PUSH2 0x2B23 DUP1 PUSH2 0x9D8 PUSH0 CODECOPY PUSH0 RETURN INVALID PUSH1 0x80 PUSH1 0x40 MSTORE CALLVALUE DUP1 ISZERO PUSH2 0xF JUMPI PUSH0 DUP1 REVERT JUMPDEST POP PUSH1 0x4 CALLDATASIZE LT PUSH2 0x1F9 JUMPI PUSH0 CALLDATALOAD PUSH1 0xE0 SHR DUP1 PUSH4 0x61D027B3 GT PUSH2 0x118 JUMPI DUP1 PUSH4 0xA9059CBB GT PUSH2 0xAB JUMPI DUP1 PUSH4 0xD5391393 GT PUSH2 0x7A JUMPI DUP1 PUSH4 0xD5391393 EQ PUSH2 0x59F JUMPI DUP1 PUSH4 0xD547741F EQ PUSH2 0x5BD JUMPI DUP1 PUSH4 0xD82E3962 EQ PUSH2 0x5D9 JUMPI DUP1 PUSH4 0xE574609E EQ PUSH2 0x609 JUMPI DUP1 PUSH4 0xE9605544 EQ PUSH2 0x627 JUMPI PUSH2 0x1F9 JUMP JUMPDEST DUP1 PUSH4 0xA9059CBB EQ PUSH2 0x505 JUMPI DUP1 PUSH4 0xB384ABEF EQ PUSH2 0x535 JUMPI DUP1 PUSH4 0xD11A57EC EQ PUSH2 0x551 JUMPI DUP1 PUSH4 0xD3F730FD EQ PUSH2 0x56F JUMPI PUSH2 0x1F9 JUMP JUMPDEST DUP1 PUSH4 0x95D89B41 GT PUSH2 0xE7 JUMPI DUP1 PUSH4 0x95D89B41 EQ PUSH2 0x47D JUMPI DUP1 PUSH4 0x9F2524EE EQ PUSH2 0x49B JUMPI DUP1 PUSH4 0xA217FDDF EQ PUSH2 0x4CB JUMPI DUP1 PUSH4 0xA694FC3A EQ PUSH2 0x4E9 JUMPI PUSH2 0x1F9 JUMP JUMPDEST DUP1 PUSH4 0x61D027B3 EQ PUSH2 0x3F5 JUMPI DUP1 PUSH4 0x70A08231 EQ PUSH2 0x413 JUMPI DUP1 PUSH4 0x8456CB59 EQ PUSH2 0x443 JUMPI DUP1 PUSH4 0x91D14854 EQ PUSH2 0x44D JUMPI PUSH2 0x1F9 JUMP JUMPDEST DUP1 PUSH4 0x313CE567 GT PUSH2 0x190 JUMPI DUP1 PUSH4 0x40C10F19 GT PUSH2 0x15F JUMPI DUP1 PUSH4 0x40C10F19 EQ PUSH2 0x36F JUMPI DUP1 PUSH4 0x42966C68 EQ PUSH2 0x38B JUMPI DUP1 PUSH4 0x5C975ABB EQ PUSH2 0x3A7 JUMPI DUP1 PUSH4 0x60217267 EQ PUSH2 0x3C5 JUMPI PUSH2 0x1F9 JUMP JUMPDEST DUP1 PUSH4 0x313CE567 EQ PUSH2 0x321 JUMPI DUP1 PUSH4 0x36568ABE EQ PUSH2 0x33F JUMPI DUP1 PUSH4 0x372500AB EQ PUSH2 0x35B JUMPI DUP1 PUSH4 0x3F4BA83A EQ PUSH2 0x365 JUMPI PUSH2 0x1F9 JUMP JUMPDEST DUP1 PUSH4 0x248A9CA3 GT PUSH2 0x1CC JUMPI DUP1 PUSH4 0x248A9CA3 EQ PUSH2 0x287 JUMPI DUP1 PUSH4 0x265AA621 EQ PUSH2 0x2B7 JUMPI DUP1 PUSH4 0x2E17DE78 EQ PUSH2 0x2E9 JUMPI DUP1 PUSH4 0x2F2FF15D EQ PUSH2 0x305 JUMPI PUSH2 0x1F9 JUMP JUMPDEST DUP1 PUSH4 0x1FFC9A7 EQ PUSH2 0x1FD JUMPI DUP1 PUSH4 0x6FDDE03 EQ PUSH2 0x22D JUMPI DUP1 PUSH4 0xD15FD77 EQ PUSH2 0x24B JUMPI DUP1 PUSH4 0x18160DDD EQ PUSH2 0x269 JUMPI JUMPDEST PUSH0 DUP1 REVERT JUMPDEST PUSH2 0x217 PUSH1 0x4 DUP1 CALLDATASIZE SUB DUP2 ADD SWAP1 PUSH2 0x212 SWAP2 SWAP1 PUSH2 0x1BE8 JUMP JUMPDEST PUSH2 0x643 JUMP JUMPDEST PUSH1 0x40 MLOAD PUSH2 0x224 SWAP2 SWAP1 PUSH2 0x1C2D JUMP JUMPDEST PUSH1 0x40 MLOAD DUP1 SWAP2 SUB SWAP1 RETURN JUMPDEST PUSH2 0x235 PUSH2 0x6BC JUMP JUMPDEST PUSH1 0x40 MLOAD PUSH2 0x242 SWAP2 SWAP1 PUSH2 0x1CB6 JUMP JUMPDEST PUSH1 0x40 MLOAD DUP1 SWAP2 SUB SWAP1 RETURN JUMPDEST PUSH2 0x253 PUSH2 0x748 JUMP JUMPDEST PUSH1 0x40 MLOAD PUSH2 0x260 SWAP2 SWAP1 PUSH2 0x1CEE JUMP JUMPDEST PUSH1 0x40 MLOAD DUP1 SWAP2 SUB SWAP1 RETURN JUMPDEST PUSH2 0x271 PUSH2 0x74E JUMP JUMPDEST PUSH1 0x40 MLOAD PUSH2 0x27E SWAP2 SWAP1 PUSH2 0x1CEE JUMP JUMPDEST PUSH1 0x40 MLOAD DUP1 SWAP2 SUB SWAP1 RETURN JUMPDEST PUSH2 0x2A1 PUSH1 0x4 DUP1 CALLDATASIZE SUB DUP2 ADD SWAP1 PUSH2 0x29C SWAP2 SWAP1 PUSH2 0x1D3A JUMP JUMPDEST PUSH2 0x754 JUMP JUMPDEST PUSH1 0x40 MLOAD PUSH2 0x2AE SWAP2 SWAP1 PUSH2 0x1D74 JUMP JUMPDEST PUSH1 0x40 MLOAD DUP1 SWAP2 SUB SWAP1 RETURN JUMPDEST PUSH2 0x2D1 PUSH1 0x4 DUP1 CALLDATASIZE SUB DUP2 ADD SWAP1 PUSH2 0x2CC SWAP2 SWAP1 PUSH2 0x1DB7 JUMP JUMPDEST PUSH2 0x770 JUMP JUMPDEST PUSH1 0x40 MLOAD PUSH2 0x2E0 SWAP4 SWAP3 SWAP2 SWAP1 PUSH2 0x1DE2 JUMP JUMPDEST PUSH1 0x40 MLOAD DUP1 SWAP2 SUB SWAP1 RETURN JUMPDEST PUSH2 0x303 PUSH1 0x4 DUP1 CALLDATASIZE SUB DUP2 ADD SWAP1 PUSH2 0x2FE SWAP2 SWAP1 PUSH2 0x1DB7 JUMP JUMPDEST PUSH2 0x8AE JUMP JUMPDEST STOP JUMPDEST PUSH2 0x31F PUSH1 0x4 DUP1 CALLDATASIZE SUB DUP2 ADD SWAP1 PUSH2 0x31A SWAP2 SWAP1 PUSH2 0x1E7F JUMP JUMPDEST PUSH2 0xA25 JUMP JUMPDEST STOP JUMPDEST PUSH2 0x329 PUSH2 0xA47 JUMP JUMPDEST PUSH1 0x40 MLOAD PUSH2 0x336 SWAP2 SWAP1 PUSH2 0x1ED8 JUMP JUMPDEST PUSH1 0x40 MLOAD DUP1 SWAP2 SUB SWAP1 RETURN JUMPDEST PUSH2 0x359 PUSH1 0x4 DUP1 CALLDATASIZE SUB DUP2 ADD SWAP1 PUSH2 0x354 SWAP2 SWAP1 PUSH2 0x1E7F JUMP JUMPDEST PUSH2 0xA59 JUMP JUMPDEST STOP JUMPDEST PUSH2 0x363 PUSH2 0xAD4 JUMP JUMPDEST STOP JUMPDEST PUSH2 0x36D PUSH2 0xCEC JUMP JUMPDEST STOP JUMPDEST PUSH2 0x389 PUSH1 0x4 DUP1 CALLDATASIZE SUB DUP2 ADD SWAP1 PUSH2 0x384 SWAP2 SWAP1 PUSH2 0x1EF1 JUMP JUMPDEST PUSH2 0xD03 JUMP JUMPDEST STOP JUMPDEST PUSH2 0x3A5 PUSH1 0x4 DUP1 CALLDATASIZE SUB DUP2 ADD SWAP1 PUSH2 0x3A0 SWAP2 SWAP1 PUSH2 0x1DB7 JUMP JUMPDEST PUSH2 0xE2C JUMP JUMPDEST STOP JUMPDEST PUSH2 0x3AF PUSH2 0xF68 JUMP JUMPDEST PUSH1 0x40 MLOAD PUSH2 0x3BC SWAP2 SWAP1 PUSH2 0x1C2D JUMP JUMPDEST PUSH1 0x40 MLOAD DUP1 SWAP2 SUB SWAP1 RETURN JUMPDEST PUSH2 0x3DF PUSH1 0x4 DUP1 CALLDATASIZE SUB DUP2 ADD SWAP1 PUSH2 0x3DA SWAP2 SWAP1 PUSH2 0x1F2F JUMP JUMPDEST PUSH2 0xF7D JUMP JUMPDEST PUSH1 0x40 MLOAD PUSH2 0x3EC SWAP2 SWAP1 PUSH2 0x1CEE JUMP JUMPDEST PUSH1 0x40 MLOAD DUP1 SWAP2 SUB SWAP1 RETURN JUMPDEST PUSH2 0x3FD PUSH2 0xF92 JUMP JUMPDEST PUSH1 0x40 MLOAD PUSH2 0x40A SWAP2 SWAP1 PUSH2 0x1F69 JUMP JUMPDEST PUSH1 0x40 MLOAD DUP1 SWAP2 SUB SWAP1 RETURN JUMPDEST PUSH2 0x42D PUSH1 0x4 DUP1 CALLDATASIZE SUB DUP2 ADD SWAP1 PUSH2 0x428 SWAP2 SWAP1 PUSH2 0x1F2F JUMP JUMPDEST PUSH2 0xFB7 JUMP JUMPDEST PUSH1 0x40 MLOAD PUSH2 0x43A SWAP2 SWAP1 PUSH2 0x1CEE JUMP JUMPDEST PUSH1 0x40 MLOAD DUP1 SWAP2 SUB SWAP1 RETURN JUMPDEST PUSH2 0x44B PUSH2 0xFCC JUMP JUMPDEST STOP JUMPDEST PUSH2 0x467 PUSH1 0x4 DUP1 CALLDATASIZE SUB DUP2 ADD SWAP1 PUSH2 0x462 SWAP2 SWAP1 PUSH2 0x1E7F JUMP JUMPDEST PUSH2 0xFE3 JUMP JUMPDEST PUSH1 0x40 MLOAD PUSH2 0x474 SWAP2 SWAP1 PUSH2 0x1C2D JUMP JUMPDEST PUSH1 0x40 MLOAD DUP1 SWAP2 SUB SWAP1 RETURN JUMPDEST PUSH2 0x485 PUSH2 0x1046 JUMP JUMPDEST PUSH1 0x40 MLOAD PUSH2 0x492 SWAP2 SWAP1 PUSH2 0x1CB6 JUMP JUMPDEST PUSH1 0x40 MLOAD DUP1 SWAP2 SUB SWAP1 RETURN JUMPDEST PUSH2 0x4B5 PUSH1 0x4 DUP1 CALLDATASIZE SUB DUP2 ADD SWAP1 PUSH2 0x4B0 SWAP2 SWAP1 PUSH2 0x1EF1 JUMP JUMPDEST PUSH2 0x10D2 JUMP JUMPDEST PUSH1 0x40 MLOAD PUSH2 0x4C2 SWAP2 SWAP1 PUSH2 0x1CEE JUMP JUMPDEST PUSH1 0x40 MLOAD DUP1 SWAP2 SUB SWAP1 RETURN JUMPDEST PUSH2 0x4D3 PUSH2 0x10F2 JUMP JUMPDEST PUSH1 0x40 MLOAD PUSH2 0x4E0 SWAP2 SWAP1 PUSH2 0x1D74 JUMP JUMPDEST PUSH1 0x40 MLOAD DUP1 SWAP2 SUB SWAP1 RETURN JUMPDEST PUSH2 0x503 PUSH1 0x4 DUP1 CALLDATASIZE SUB DUP2 ADD SWAP1 PUSH2 0x4FE SWAP2 SWAP1 PUSH2 0x1DB7 JUMP JUMPDEST PUSH2 0x10F8 JUMP JUMPDEST STOP JUMPDEST PUSH2 0x51F PUSH1 0x4 DUP1 CALLDATASIZE SUB DUP2 ADD SWAP1 PUSH2 0x51A SWAP2 SWAP1 PUSH2 0x1EF1 JUMP JUMPDEST PUSH2 0x126F JUMP JUMPDEST PUSH1 0x40 MLOAD PUSH2 0x52C SWAP2 SWAP1 PUSH2 0x1C2D JUMP JUMPDEST PUSH1 0x40 MLOAD DUP1 SWAP2 SUB SWAP1 RETURN JUMPDEST PUSH2 0x54F PUSH1 0x4 DUP1 CALLDATASIZE SUB DUP2 ADD SWAP1 PUSH2 0x54A SWAP2 SWAP1 PUSH2 0x1F82 JUMP JUMPDEST PUSH2 0x140D JUMP JUMPDEST STOP JUMPDEST PUSH2 0x559 PUSH2 0x155B JUMP JUMPDEST PUSH1 0x40 MLOAD PUSH2 0x566 SWAP2 SWAP1 PUSH2 0x1D74 JUMP JUMPDEST PUSH1 0x40 MLOAD DUP1 SWAP2 SUB SWAP1 RETURN JUMPDEST PUSH2 0x589 PUSH1 0x4 DUP1 CALLDATASIZE SUB DUP2 ADD SWAP1 PUSH2 0x584 SWAP2 SWAP1 PUSH2 0x1F2F JUMP JUMPDEST PUSH2 0x157F JUMP JUMPDEST PUSH1 0x40 MLOAD PUSH2 0x596 SWAP2 SWAP1 PUSH2 0x1CEE JUMP JUMPDEST PUSH1 0x40 MLOAD DUP1 SWAP2 SUB SWAP1 RETURN JUMPDEST PUSH2 0x5A7 PUSH2 0x1594 JUMP JUMPDEST PUSH1 0x40 MLOAD PUSH2 0x5B4 SWAP2 SWAP1 PUSH2 0x1D74 JUMP JUMPDEST PUSH1 0x40 MLOAD DUP1 SWAP2 SUB SWAP1 RETURN JUMPDEST PUSH2 0x5D7 PUSH1 0x4 DUP1 CALLDATASIZE SUB DUP2 ADD SWAP1 PUSH2 0x5D2 SWAP2 SWAP1 PUSH2 0x1E7F JUMP JUMPDEST PUSH2 0x15B8 JUMP JUMPDEST STOP JUMPDEST PUSH2 0x5F3 PUSH1 0x4 DUP1 CALLDATASIZE SUB DUP2 ADD SWAP1 PUSH2 0x5EE SWAP2 SWAP1 PUSH2 0x1F2F JUMP JUMPDEST PUSH2 0x15DA JUMP JUMPDEST PUSH1 0x40 MLOAD PUSH2 0x600 SWAP2 SWAP1 PUSH2 0x1CEE JUMP JUMPDEST PUSH1 0x40 MLOAD DUP1 SWAP2 SUB SWAP1 RETURN JUMPDEST PUSH2 0x611 PUSH2 0x1669 JUMP JUMPDEST PUSH1 0x40 MLOAD PUSH2 0x61E SWAP2 SWAP1 PUSH2 0x1CEE JUMP JUMPDEST PUSH1 0x40 MLOAD DUP1 SWAP2 SUB SWAP1 RETURN JUMPDEST PUSH2 0x641 PUSH1 0x4 DUP1 CALLDATASIZE SUB DUP2 ADD SWAP1 PUSH2 0x63C SWAP2 SWAP1 PUSH2 0x20EC JUMP JUMPDEST PUSH2 0x166F JUMP JUMPDEST STOP JUMPDEST PUSH0 PUSH32 0x7965DB0B00000000000000000000000000000000000000000000000000000000 PUSH28 0xFFFFFFFFFFFFFFFFFFFFFFFFFFFFFFFFFFFFFFFFFFFFFFFFFFFFFFFF NOT AND DUP3 PUSH28 0xFFFFFFFFFFFFFFFFFFFFFFFFFFFFFFFFFFFFFFFFFFFFFFFFFFFFFFFF NOT AND EQ DUP1 PUSH2 0x6B5 JUMPI POP PUSH2 0x6B4 DUP3 PUSH2 0x1786 JUMP JUMPDEST JUMPDEST SWAP1 POP SWAP2 SWAP1 POP JUMP JUMPDEST PUSH1 0x2 DUP1 SLOAD PUSH2 0x6C9 SWAP1 PUSH2 0x218F JUMP JUMPDEST DUP1 PUSH1 0x1F ADD PUSH1 0x20 DUP1 SWAP2 DIV MUL PUSH1 0x20 ADD PUSH1 0x40 MLOAD SWAP1 DUP2 ADD PUSH1 0x40 MSTORE DUP1 SWAP3 SWAP2 SWAP1 DUP2 DUP2 MSTORE PUSH1 0x20 ADD DUP3 DUP1 SLOAD PUSH2 0x6F5 SWAP1 PUSH2 0x218F JUMP JUMPDEST DUP1 ISZERO PUSH2 0x740 JUMPI DUP1 PUSH1 0x1F LT PUSH2 0x717 JUMPI PUSH2 0x100 DUP1 DUP4 SLOAD DIV MUL DUP4 MSTORE SWAP2 PUSH1 0x20 ADD SWAP2 PUSH2 0x740 JUMP JUMPDEST DUP3 ADD SWAP2 SWAP1 PUSH0 MSTORE PUSH1 0x20 PUSH0 KECCAK256 SWAP1 JUMPDEST DUP2 SLOAD DUP2 MSTORE SWAP1 PUSH1 0x1 ADD SWAP1 PUSH1 0x20 ADD DUP1 DUP4 GT PUSH2 0x723 JUMPI DUP3 SWAP1 SUB PUSH1 0x1F AND DUP3 ADD SWAP2 JUMPDEST POP POP POP POP POP DUP2 JUMP JUMPDEST PUSH1 0xD SLOAD DUP2 JUMP JUMPDEST PUSH1 0x5 SLOAD DUP2 JUMP JUMPDEST PUSH0 DUP1 PUSH0 DUP4 DUP2 MSTORE PUSH1 0x20 ADD SWAP1 DUP2 MSTORE PUSH1 0x20 ADD PUSH0 KECCAK256 PUSH1 0x1 ADD SLOAD SWAP1 POP SWAP2 SWAP1 POP JUMP JUMPDEST PUSH1 0xA PUSH1 0x20 MSTORE DUP1 PUSH0 MSTORE PUSH1 0x40 PUSH0 KECCAK256 PUSH0 SWAP2 POP SWAP1 POP DUP1 PUSH0 ADD DUP1 SLOAD PUSH2 0x78F SWAP1 PUSH2 0x218F JUMP JUMPDEST DUP1 PUSH1 0x1F ADD PUSH1 0x20 DUP1 SWAP2 DIV MUL PUSH1 0x20 ADD PUSH1 0x40 MLOAD SWAP1 DUP2 ADD PUSH1 0x40 MSTORE DUP1 SWAP3 SWAP2 SWAP1 DUP2 DUP2 MSTORE PUSH1 0x20 ADD DUP3 DUP1 SLOAD PUSH2 0x7BB SWAP1 PUSH2 0x218F JUMP JUMPDEST DUP1 ISZERO PUSH2 0x806 JUMPI DUP1 PUSH1 0x1F LT PUSH2 0x7DD JUMPI PUSH2 0x100 DUP1 DUP4 SLOAD DIV MUL DUP4 MSTORE SWAP2 PUSH1 0x20 ADD SWAP2 PUSH2 0x806 JUMP JUMPDEST DUP3 ADD SWAP2 SWAP1 PUSH0 MSTORE PUSH1 0x20 PUSH0 KECCAK256 SWAP1 JUMPDEST DUP2 SLOAD DUP2 MSTORE SWAP1 PUSH1 0x1 ADD SWAP1 PUSH1 0x20 ADD DUP1 DUP4 GT PUSH2 0x7E9 JUMPI DUP3 SWAP1 SUB PUSH1 0x1F AND DUP3 ADD SWAP2 JUMPDEST POP POP POP POP POP SWAP1 DUP1 PUSH1 0x1 ADD DUP1 SLOAD PUSH2 0x81B SWAP1 PUSH2 0x218F JUMP JUMPDEST DUP1 PUSH1 0x1F ADD PUSH1 0x20 DUP1 SWAP2 DIV MUL PUSH1 0x20 ADD PUSH1 0x40 MLOAD SWAP1 DUP2 ADD PUSH1 0x40 MSTORE DUP1 SWAP3 SWAP2 SWAP1 DUP2 DUP2 MSTORE PUSH1 0x20 ADD DUP3 DUP1 SLOAD PUSH2 0x847 SWAP1 PUSH2 0x218F JUMP JUMPDEST DUP1 ISZERO PUSH2 0x892 JUMPI DUP1 PUSH1 0x1F LT PUSH2 0x869 JUMPI PUSH2 0x100 DUP1 DUP4 SLOAD DIV MUL DUP4 MSTORE SWAP2 PUSH1 0x20 ADD SWAP2 PUSH2 0x892 JUMP JUMPDEST DUP3 ADD SWAP2 SWAP1 PUSH0 MSTORE PUSH1 0x20 PUSH0 KECCAK256 SWAP1 JUMPDEST DUP2 SLOAD DUP2 MSTORE SWAP1 PUSH1 0x1 ADD SWAP1 PUSH1 0x20 ADD DUP1 DUP4 GT PUSH2 0x875 JUMPI DUP3 SWAP1 SUB PUSH1 0x1F AND DUP3 ADD SWAP2 JUMPDEST POP POP POP POP POP SWAP1 DUP1 PUSH1 0x2 ADD PUSH0 SWAP1 SLOAD SWAP1 PUSH2 0x100 EXP SWAP1 DIV PUSH1 0xFF AND SWAP1 POP DUP4 JUMP JUMPDEST DUP1 PUSH1 0x8 PUSH0 CALLER PUSH20 0xFFFFFFFFFFFFFFFFFFFFFFFFFFFFFFFFFFFFFFFF AND PUSH20 0xFFFFFFFFFFFFFFFFFFFFFFFFFFFFFFFFFFFFFFFF AND DUP2 MSTORE PUSH1 0x20 ADD SWAP1 DUP2 MSTORE PUSH1 0x20 ADD PUSH0 KECCAK256 SLOAD LT ISZERO PUSH2 0x92E JUMPI PUSH1 0x40 MLOAD PUSH32 0x8C379A000000000000000000000000000000000000000000000000000000000 DUP2 MSTORE PUSH1 0x4 ADD PUSH2 0x925 SWAP1 PUSH2 0x2209 JUMP JUMPDEST PUSH1 0x40 MLOAD DUP1 SWAP2 SUB SWAP1 REVERT JUMPDEST DUP1 PUSH1 0x8 PUSH0 CALLER PUSH20 0xFFFFFFFFFFFFFFFFFFFFFFFFFFFFFFFFFFFFFFFF AND PUSH20 0xFFFFFFFFFFFFFFFFFFFFFFFFFFFFFFFFFFFFFFFF AND DUP2 MSTORE PUSH1 0x20 ADD SWAP1 DUP2 MSTORE PUSH1 0x20 ADD PUSH0 KECCAK256 PUSH0 DUP3 DUP3 SLOAD PUSH2 0x97A SWAP2 SWAP1 PUSH2 0x2254 JUMP JUMPDEST SWAP3 POP POP DUP2 SWAP1 SSTORE POP DUP1 PUSH1 0x7 PUSH0 CALLER PUSH20 0xFFFFFFFFFFFFFFFFFFFFFFFFFFFFFFFFFFFFFFFF AND PUSH20 0xFFFFFFFFFFFFFFFFFFFFFFFFFFFFFFFFFFFFFFFF AND DUP2 MSTORE PUSH1 0x20 ADD SWAP1 DUP2 MSTORE PUSH1 0x20 ADD PUSH0 KECCAK256 PUSH0 DUP3 DUP3 SLOAD PUSH2 0x9CD SWAP2 SWAP1 PUSH2 0x2287 JUMP JUMPDEST SWAP3 POP POP DUP2 SWAP1 SSTORE POP CALLER PUSH20 0xFFFFFFFFFFFFFFFFFFFFFFFFFFFFFFFFFFFFFFFF AND PUSH32 0x85082129D87B2FE11527CB1B3B7A520AEB5AA6913F88A3D8757FE40D1DB02FDD DUP3 PUSH1 0x40 MLOAD PUSH2 0xA1A SWAP2 SWAP1 PUSH2 0x1CEE JUMP JUMPDEST PUSH1 0x40 MLOAD DUP1 SWAP2 SUB SWAP1 LOG2 POP JUMP JUMPDEST PUSH2 0xA2E DUP3 PUSH2 0x754 JUMP JUMPDEST PUSH2 0xA37 DUP2 PUSH2 0x17EF JUMP JUMPDEST PUSH2 0xA41 DUP4 DUP4 PUSH2 0x1803 JUMP JUMPDEST POP POP POP POP JUMP JUMPDEST PUSH1 0x4 PUSH0 SWAP1 SLOAD SWAP1 PUSH2 0x100 EXP SWAP1 DIV PUSH1 0xFF AND DUP2 JUMP JUMPDEST PUSH2 0xA61 PUSH2 0x18EC JUMP JUMPDEST PUSH20 0xFFFFFFFFFFFFFFFFFFFFFFFFFFFFFFFFFFFFFFFF AND DUP2 PUSH20 0xFFFFFFFFFFFFFFFFFFFFFFFFFFFFFFFFFFFFFFFF AND EQ PUSH2 0xAC5 JUMPI PUSH1 0x40 MLOAD PUSH32 0x6697B23200000000000000000000000000000000000000000000000000000000 DUP2 MSTORE PUSH1 0x4 ADD PUSH1 0x40 MLOAD DUP1 SWAP2 SUB SWAP1 REVERT JUMPDEST PUSH2 0xACF DUP3 DUP3 PUSH2 0x18F3 JUMP JUMPDEST POP POP POP JUMP JUMPDEST PUSH0 PUSH2 0xADE CALLER PUSH2 0x15DA JUMP JUMPDEST SWAP1 POP DUP1 PUSH1 0x7 PUSH0 PUSH1 0x6 PUSH0 SWAP1 SLOAD SWAP1 PUSH2 0x100 EXP SWAP1 DIV PUSH20 0xFFFFFFFFFFFFFFFFFFFFFFFFFFFFFFFFFFFFFFFF AND PUSH20 0xFFFFFFFFFFFFFFFFFFFFFFFFFFFFFFFFFFFFFFFF AND PUSH20 0xFFFFFFFFFFFFFFFFFFFFFFFFFFFFFFFFFFFFFFFF AND DUP2 MSTORE PUSH1 0x20 ADD SWAP1 DUP2 MSTORE PUSH1 0x20 ADD PUSH0 KECCAK256 SLOAD LT ISZERO PUSH2 0xB81 JUMPI PUSH1 0x40 MLOAD PUSH32 0x8C379A000000000000000000000000000000000000000000000000000000000 DUP2 MSTORE PUSH1 0x4 ADD PUSH2 0xB78 SWAP1 PUSH2 0x2304 JUMP JUMPDEST PUSH1 0x40 MLOAD DUP1 SWAP2 SUB SWAP1 REVERT JUMPDEST DUP1 PUSH1 0x7 PUSH0 PUSH1 0x6 PUSH0 SWAP1 SLOAD SWAP1 PUSH2 0x100 EXP SWAP1 DIV PUSH20 0xFFFFFFFFFFFFFFFFFFFFFFFFFFFFFFFFFFFFFFFF AND PUSH20 0xFFFFFFFFFFFFFFFFFFFFFFFFFFFFFFFFFFFFFFFF AND PUSH20 0xFFFFFFFFFFFFFFFFFFFFFFFFFFFFFFFFFFFFFFFF AND DUP2 MSTORE PUSH1 0x20 ADD SWAP1 DUP2 MSTORE PUSH1 0x20 ADD PUSH0 KECCAK256 PUSH0 DUP3 DUP3 SLOAD PUSH2 0xBEE SWAP2 SWAP1 PUSH2 0x2254 JUMP JUMPDEST SWAP3 POP POP DUP2 SWAP1 SSTORE POP DUP1 PUSH1 0x7 PUSH0 CALLER PUSH20 0xFFFFFFFFFFFFFFFFFFFFFFFFFFFFFFFFFFFFFFFF AND PUSH20 0xFFFFFFFFFFFFFFFFFFFFFFFFFFFFFFFFFFFFFFFF AND DUP2 MSTORE PUSH1 0x20 ADD SWAP1 DUP2 MSTORE PUSH1 0x20 ADD PUSH0 KECCAK256 PUSH0 DUP3 DUP3 SLOAD PUSH2 0xC41 SWAP2 SWAP1 PUSH2 0x2287 JUMP JUMPDEST SWAP3 POP POP DUP2 SWAP1 SSTORE POP DUP1 PUSH1 0x9 PUSH0 CALLER PUSH20 0xFFFFFFFFFFFFFFFFFFFFFFFFFFFFFFFFFFFFFFFF AND PUSH20 0xFFFFFFFFFFFFFFFFFFFFFFFFFFFFFFFFFFFFFFFF AND DUP2 MSTORE PUSH1 0x20 ADD SWAP1 DUP2 MSTORE PUSH1 0x20 ADD PUSH0 KECCAK256 PUSH0 DUP3 DUP3 SLOAD PUSH2 0xC94 SWAP2 SWAP1 PUSH2 0x2287 JUMP JUMPDEST SWAP3 POP POP DUP2 SWAP1 SSTORE POP CALLER PUSH20 0xFFFFFFFFFFFFFFFFFFFFFFFFFFFFFFFFFFFFFFFF AND PUSH32 0xE2403640BA68FED3A2F88B7557551D1993F84B99BB10FF833F0CF8DB0C5E0486 DUP3 PUSH1 0x40 MLOAD PUSH2 0xCE1 SWAP2 SWAP1 PUSH2 0x1CEE JUMP JUMPDEST PUSH1 0x40 MLOAD DUP1 SWAP2 SUB SWAP1 LOG2 POP JUMP JUMPDEST PUSH0 DUP1 SHL PUSH2 0xCF8 DUP2 PUSH2 0x17EF JUMP JUMPDEST PUSH2 0xD00 PUSH2 0x19DC JUMP JUMPDEST POP JUMP JUMPDEST PUSH32 0x9F2DF0FED2C77648DE5860A4CC508CD0818C85B8B8A1AB4CEEEF8D981C8956A6 PUSH2 0xD2D DUP2 PUSH2 0x17EF JUMP JUMPDEST PUSH0 PUSH1 0x4 PUSH0 SWAP1 SLOAD SWAP1 PUSH2 0x100 EXP SWAP1 DIV PUSH1 0xFF AND PUSH1 0xA PUSH2 0xD49 SWAP2 SWAP1 PUSH2 0x2451 JUMP JUMPDEST DUP4 PUSH2 0xD54 SWAP2 SWAP1 PUSH2 0x249B JUMP JUMPDEST SWAP1 POP DUP1 PUSH1 0x7 PUSH0 DUP7 PUSH20 0xFFFFFFFFFFFFFFFFFFFFFFFFFFFFFFFFFFFFFFFF AND PUSH20 0xFFFFFFFFFFFFFFFFFFFFFFFFFFFFFFFFFFFFFFFF AND DUP2 MSTORE PUSH1 0x20 ADD SWAP1 DUP2 MSTORE PUSH1 0x20 ADD PUSH0 KECCAK256 PUSH0 DUP3 DUP3 SLOAD PUSH2 0xDA2 SWAP2 SWAP1 PUSH2 0x2287 JUMP JUMPDEST SWAP3 POP POP DUP2 SWAP1 SSTORE POP DUP1 PUSH1 0x5 PUSH0 DUP3 DUP3 SLOAD PUSH2 0xDBA SWAP2 SWAP1 PUSH2 0x2287 JUMP JUMPDEST SWAP3 POP POP DUP2 SWAP1 SSTORE POP DUP4 PUSH20 0xFFFFFFFFFFFFFFFFFFFFFFFFFFFFFFFFFFFFFFFF AND PUSH0 PUSH20 0xFFFFFFFFFFFFFFFFFFFFFFFFFFFFFFFFFFFFFFFF AND PUSH32 0xDDF252AD1BE2C89B69C2B068FC378DAA952BA7F163C4A11628F55A4DF523B3EF DUP4 PUSH1 0x40 MLOAD PUSH2 0xE1E SWAP2 SWAP1 PUSH2 0x1CEE JUMP JUMPDEST PUSH1 0x40 MLOAD DUP1 SWAP2 SUB SWAP1 LOG3 POP POP POP POP JUMP JUMPDEST DUP1 PUSH1 0x7 PUSH0 CALLER PUSH20 0xFFFFFFFFFFFFFFFFFFFFFFFFFFFFFFFFFFFFFFFF AND PUSH20 0xFFFFFFFFFFFFFFFFFFFFFFFFFFFFFFFFFFFFFFFF AND DUP2 MSTORE PUSH1 0x20 ADD SWAP1 DUP2 MSTORE PUSH1 0x20 ADD PUSH0 KECCAK256 SLOAD LT ISZERO PUSH2 0xEAC JUMPI PUSH1 0x40 MLOAD PUSH32 0x8C379A000000000000000000000000000000000000000000000000000000000 DUP2 MSTORE PUSH1 0x4 ADD PUSH2 0xEA3 SWAP1 PUSH2 0x2526 JUMP JUMPDEST PUSH1 0x40 MLOAD DUP1 SWAP2 SUB SWAP1 REVERT JUMPDEST DUP1 PUSH1 0x7 PUSH0 CALLER PUSH20 0xFFFFFFFFFFFFFFFFFFFFFFFFFFFFFFFFFFFFFFFF AND PUSH20 0xFFFFFFFFFFFFFFFFFFFFFFFFFFFFFFFFFFFFFFFF AND DUP2 MSTORE PUSH1 0x20 ADD SWAP1 DUP2 MSTORE PUSH1 0x20 ADD PUSH0 KECCAK256 PUSH0 DUP3 DUP3 SLOAD PUSH2 0xEF8 SWAP2 SWAP1 PUSH2 0x2254 JUMP JUMPDEST SWAP3 POP POP DUP2 SWAP1 SSTORE POP DUP1 PUSH1 0x5 PUSH0 DUP3 DUP3 SLOAD PUSH2 0xF10 SWAP2 SWAP1 PUSH2 0x2254 JUMP JUMPDEST SWAP3 POP POP DUP2 SWAP1 SSTORE POP CALLER PUSH20 0xFFFFFFFFFFFFFFFFFFFFFFFFFFFFFFFFFFFFFFFF AND PUSH32 0xCC16F5DBB4873280815C1EE09DBD06736CFFCC184412CF7A71A0FDB75D397CA5 DUP3 PUSH1 0x40 MLOAD PUSH2 0xF5D SWAP2 SWAP1 PUSH2 0x1CEE JUMP JUMPDEST PUSH1 0x40 MLOAD DUP1 SWAP2 SUB SWAP1 LOG2 POP JUMP JUMPDEST PUSH0 PUSH1 0x1 PUSH0 SWAP1 SLOAD SWAP1 PUSH2 0x100 EXP SWAP1 DIV PUSH1 0xFF AND SWAP1 POP SWAP1 JUMP JUMPDEST PUSH1 0x8 PUSH1 0x20 MSTORE DUP1 PUSH0 MSTORE PUSH1 0x40 PUSH0 KECCAK256 PUSH0 SWAP2 POP SWAP1 POP SLOAD DUP2 JUMP JUMPDEST PUSH1 0x6 PUSH0 SWAP1 SLOAD SWAP1 PUSH2 0x100 EXP SWAP1 DIV PUSH20 0xFFFFFFFFFFFFFFFFFFFFFFFFFFFFFFFFFFFFFFFF AND DUP2 JUMP JUMPDEST PUSH1 0x7 PUSH1 0x20 MSTORE DUP1 PUSH0 MSTORE PUSH1 0x40 PUSH0 KECCAK256 PUSH0 SWAP2 POP SWAP1 POP SLOAD DUP2 JUMP JUMPDEST PUSH0 DUP1 SHL PUSH2 0xFD8 DUP2 PUSH2 0x17EF JUMP JUMPDEST PUSH2 0xFE0 PUSH2 0x1A3D JUMP JUMPDEST POP JUMP JUMPDEST PUSH0 DUP1 PUSH0 DUP5 DUP2 MSTORE PUSH1 0x20 ADD SWAP1 DUP2 MSTORE PUSH1 0x20 ADD PUSH0 KECCAK256 PUSH0 ADD PUSH0 DUP4 PUSH20 0xFFFFFFFFFFFFFFFFFFFFFFFFFFFFFFFFFFFFFFFF AND PUSH20 0xFFFFFFFFFFFFFFFFFFFFFFFFFFFFFFFFFFFFFFFF AND DUP2 MSTORE PUSH1 0x20 ADD SWAP1 DUP2 MSTORE PUSH1 0x20 ADD PUSH0 KECCAK256 PUSH0 SWAP1 SLOAD SWAP1 PUSH2 0x100 EXP SWAP1 DIV PUSH1 0xFF AND SWAP1 POP SWAP3 SWAP2 POP POP JUMP JUMPDEST PUSH1 0x3 DUP1 SLOAD PUSH2 0x1053 SWAP1 PUSH2 0x218F JUMP JUMPDEST DUP1 PUSH1 0x1F ADD PUSH1 0x20 DUP1 SWAP2 DIV MUL PUSH1 0x20 ADD PUSH1 0x40 MLOAD SWAP1 DUP2 ADD PUSH1 0x40 MSTORE DUP1 SWAP3 SWAP2 SWAP1 DUP2 DUP2 MSTORE PUSH1 0x20 ADD DUP3 DUP1 SLOAD PUSH2 0x107F SWAP1 PUSH2 0x218F JUMP JUMPDEST DUP1 ISZERO PUSH2 0x10CA JUMPI DUP1 PUSH1 0x1F LT PUSH2 0x10A1 JUMPI PUSH2 0x100 DUP1 DUP4 SLOAD DIV MUL DUP4 MSTORE SWAP2 PUSH1 0x20 ADD SWAP2 PUSH2 0x10CA JUMP JUMPDEST DUP3 ADD SWAP2 SWAP1 PUSH0 MSTORE PUSH1 0x20 PUSH0 KECCAK256 SWAP1 JUMPDEST DUP2 SLOAD DUP2 MSTORE SWAP1 PUSH1 0x1 ADD SWAP1 PUSH1 0x20 ADD DUP1 DUP4 GT PUSH2 0x10AD JUMPI DUP3 SWAP1 SUB PUSH1 0x1F AND DUP3 ADD SWAP2 JUMPDEST POP POP POP POP POP DUP2 JUMP JUMPDEST PUSH1 0xB PUSH1 0x20 MSTORE DUP2 PUSH0 MSTORE PUSH1 0x40 PUSH0 KECCAK256 PUSH1 0x20 MSTORE DUP1 PUSH0 MSTORE PUSH1 0x40 PUSH0 KECCAK256 PUSH0 SWAP2 POP SWAP2 POP POP SLOAD DUP2 JUMP JUMPDEST PUSH0 DUP1 SHL DUP2 JUMP JUMPDEST DUP1 PUSH1 0x7 PUSH0 CALLER PUSH20 0xFFFFFFFFFFFFFFFFFFFFFFFFFFFFFFFFFFFFFFFF AND PUSH20 0xFFFFFFFFFFFFFFFFFFFFFFFFFFFFFFFFFFFFFFFF AND DUP2 MSTORE PUSH1 0x20 ADD SWAP1 DUP2 MSTORE PUSH1 0x20 ADD PUSH0 KECCAK256 SLOAD LT ISZERO PUSH2 0x1178 JUMPI PUSH1 0x40 MLOAD PUSH32 0x8C379A000000000000000000000000000000000000000000000000000000000 DUP2 MSTORE PUSH1 0x4 ADD PUSH2 0x116F SWAP1 PUSH2 0x258E JUMP JUMPDEST PUSH1 0x40 MLOAD DUP1 SWAP2 SUB SWAP1 REVERT JUMPDEST DUP1 PUSH1 0x7 PUSH0 CALLER PUSH20 0xFFFFFFFFFFFFFFFFFFFFFFFFFFFFFFFFFFFFFFFF AND PUSH20 0xFFFFFFFFFFFFFFFFFFFFFFFFFFFFFFFFFFFFFFFF AND DUP2 MSTORE PUSH1 0x20 ADD SWAP1 DUP2 MSTORE PUSH1 0x20 ADD PUSH0 KECCAK256 PUSH0 DUP3 DUP3 SLOAD PUSH2 0x11C4 SWAP2 SWAP1 PUSH2 0x2254 JUMP JUMPDEST SWAP3 POP POP DUP2 SWAP1 SSTORE POP DUP1 PUSH1 0x8 PUSH0 CALLER PUSH20 0xFFFFFFFFFFFFFFFFFFFFFFFFFFFFFFFFFFFFFFFF AND PUSH20 0xFFFFFFFFFFFFFFFFFFFFFFFFFFFFFFFFFFFFFFFF AND DUP2 MSTORE PUSH1 0x20 ADD SWAP1 DUP2 MSTORE PUSH1 0x20 ADD PUSH0 KECCAK256 PUSH0 DUP3 DUP3 SLOAD PUSH2 0x1217 SWAP2 SWAP1 PUSH2 0x2287 JUMP JUMPDEST SWAP3 POP POP DUP2 SWAP1 SSTORE POP CALLER PUSH20 0xFFFFFFFFFFFFFFFFFFFFFFFFFFFFFFFFFFFFFFFF AND PUSH32 0xEBEDB8B3C678666E7F36970BC8F57ABF6D8FA2E828C0DA91EA5B75BF68ED101A DUP3 PUSH1 0x40 MLOAD PUSH2 0x1264 SWAP2 SWAP1 PUSH2 0x1CEE JUMP JUMPDEST PUSH1 0x40 MLOAD DUP1 SWAP2 SUB SWAP1 LOG2 POP JUMP JUMPDEST PUSH0 PUSH2 0x1278 PUSH2 0x1A9E JUMP JUMPDEST DUP2 PUSH1 0x7 PUSH0 CALLER PUSH20 0xFFFFFFFFFFFFFFFFFFFFFFFFFFFFFFFFFFFFFFFF AND PUSH20 0xFFFFFFFFFFFFFFFFFFFFFFFFFFFFFFFFFFFFFFFF AND DUP2 MSTORE PUSH1 0x20 ADD SWAP1 DUP2 MSTORE PUSH1 0x20 ADD PUSH0 KECCAK256 SLOAD LT ISZERO PUSH2 0x12F8 JUMPI PUSH1 0x40 MLOAD PUSH32 0x8C379A000000000000000000000000000000000000000000000000000000000 DUP2 MSTORE PUSH1 0x4 ADD PUSH2 0x12EF SWAP1 PUSH2 0x25F6 JUMP JUMPDEST PUSH1 0x40 MLOAD DUP1 SWAP2 SUB SWAP1 REVERT JUMPDEST DUP2 PUSH1 0x7 PUSH0 CALLER PUSH20 0xFFFFFFFFFFFFFFFFFFFFFFFFFFFFFFFFFFFFFFFF AND PUSH20 0xFFFFFFFFFFFFFFFFFFFFFFFFFFFFFFFFFFFFFFFF AND DUP2 MSTORE PUSH1 0x20 ADD SWAP1 DUP2 MSTORE PUSH1 0x20 ADD PUSH0 KECCAK256 PUSH0 DUP3 DUP3 SLOAD PUSH2 0x1344 SWAP2 SWAP1 PUSH2 0x2254 JUMP JUMPDEST SWAP3 POP POP DUP2 SWAP1 SSTORE POP DUP2 PUSH1 0x7 PUSH0 DUP6 PUSH20 0xFFFFFFFFFFFFFFFFFFFFFFFFFFFFFFFFFFFFFFFF AND PUSH20 0xFFFFFFFFFFFFFFFFFFFFFFFFFFFFFFFFFFFFFFFF AND DUP2 MSTORE PUSH1 0x20 ADD SWAP1 DUP2 MSTORE PUSH1 0x20 ADD PUSH0 KECCAK256 PUSH0 DUP3 DUP3 SLOAD PUSH2 0x1397 SWAP2 SWAP1 PUSH2 0x2287 JUMP JUMPDEST SWAP3 POP POP DUP2 SWAP1 SSTORE POP DUP3 PUSH20 0xFFFFFFFFFFFFFFFFFFFFFFFFFFFFFFFFFFFFFFFF AND CALLER PUSH20 0xFFFFFFFFFFFFFFFFFFFFFFFFFFFFFFFFFFFFFFFF AND PUSH32 0xDDF252AD1BE2C89B69C2B068FC378DAA952BA7F163C4A11628F55A4DF523B3EF DUP5 PUSH1 0x40 MLOAD PUSH2 0x13FB SWAP2 SWAP1 PUSH2 0x1CEE JUMP JUMPDEST PUSH1 0x40 MLOAD DUP1 SWAP2 SUB SWAP1 LOG3 PUSH1 0x1 SWAP1 POP SWAP3 SWAP2 POP POP JUMP JUMPDEST DUP1 PUSH1 0x7 PUSH0 CALLER PUSH20 0xFFFFFFFFFFFFFFFFFFFFFFFFFFFFFFFFFFFFFFFF AND PUSH20 0xFFFFFFFFFFFFFFFFFFFFFFFFFFFFFFFFFFFFFFFF AND DUP2 MSTORE PUSH1 0x20 ADD SWAP1 DUP2 MSTORE PUSH1 0x20 ADD PUSH0 KECCAK256 SLOAD LT ISZERO PUSH2 0x148D JUMPI PUSH1 0x40 MLOAD PUSH32 0x8C379A000000000000000000000000000000000000000000000000000000000 DUP2 MSTORE PUSH1 0x4 ADD PUSH2 0x1484 SWAP1 PUSH2 0x265E JUMP JUMPDEST PUSH1 0x40 MLOAD DUP1 SWAP2 SUB SWAP1 REVERT JUMPDEST DUP1 PUSH1 0xB PUSH0 CALLER PUSH20 0xFFFFFFFFFFFFFFFFFFFFFFFFFFFFFFFFFFFFFFFF AND PUSH20 0xFFFFFFFFFFFFFFFFFFFFFFFFFFFFFFFFFFFFFFFF AND DUP2 MSTORE PUSH1 0x20 ADD SWAP1 DUP2 MSTORE PUSH1 0x20 ADD PUSH0 KECCAK256 PUSH0 DUP5 DUP2 MSTORE PUSH1 0x20 ADD SWAP1 DUP2 MSTORE PUSH1 0x20 ADD PUSH0 KECCAK256 PUSH0 DUP3 DUP3 SLOAD PUSH2 0x14E8 SWAP2 SWAP1 PUSH2 0x2287 JUMP JUMPDEST SWAP3 POP POP DUP2 SWAP1 SSTORE POP DUP1 PUSH1 0xD PUSH0 DUP3 DUP3 SLOAD PUSH2 0x1500 SWAP2 SWAP1 PUSH2 0x2287 JUMP JUMPDEST SWAP3 POP POP DUP2 SWAP1 SSTORE POP CALLER PUSH20 0xFFFFFFFFFFFFFFFFFFFFFFFFFFFFFFFFFFFFFFFF AND PUSH32 0xEA66F58E474BC09F580000E81F31B334D171DB387D0C6098BA47BD897741679B DUP4 DUP4 PUSH1 0x40 MLOAD PUSH2 0x154F SWAP3 SWAP2 SWAP1 PUSH2 0x267C JUMP JUMPDEST PUSH1 0x40 MLOAD DUP1 SWAP2 SUB SWAP1 LOG2 POP POP JUMP JUMPDEST PUSH32 0xE1DCBDB91DF27212A29BC27177C840CF2F819ECF2187432E1FAC86C2DD5DFCA9 DUP2 JUMP JUMPDEST PUSH1 0x9 PUSH1 0x20 MSTORE DUP1 PUSH0 MSTORE PUSH1 0x40 PUSH0 KECCAK256 PUSH0 SWAP2 POP SWAP1 POP SLOAD DUP2 JUMP JUMPDEST PUSH32 0x9F2DF0FED2C77648DE5860A4CC508CD0818C85B8B8A1AB4CEEEF8D981C8956A6 DUP2 JUMP JUMPDEST PUSH2 0x15C1 DUP3 PUSH2 0x754 JUMP JUMPDEST PUSH2 0x15CA DUP2 PUSH2 0x17EF JUMP JUMPDEST PUSH2 0x15D4 DUP4 DUP4 PUSH2 0x18F3 JUMP JUMPDEST POP POP POP POP JUMP JUMPDEST PUSH0 DUP1 PUSH1 0x5 SWAP1 POP PUSH0 PUSH1 0xA PUSH3 0xF4240 PUSH1 0x5 SLOAD PUSH2 0x15F4 SWAP2 SWAP1 PUSH2 0x26D0 JUMP JUMPDEST PUSH2 0x15FE SWAP2 SWAP1 PUSH2 0x26D0 JUMP JUMPDEST DUP3 PUSH2 0x1609 SWAP2 SWAP1 PUSH2 0x2254 JUMP JUMPDEST SWAP1 POP PUSH1 0x64 DUP2 PUSH1 0x8 PUSH0 DUP8 PUSH20 0xFFFFFFFFFFFFFFFFFFFFFFFFFFFFFFFFFFFFFFFF AND PUSH20 0xFFFFFFFFFFFFFFFFFFFFFFFFFFFFFFFFFFFFFFFF AND DUP2 MSTORE PUSH1 0x20 ADD SWAP1 DUP2 MSTORE PUSH1 0x20 ADD PUSH0 KECCAK256 SLOAD PUSH2 0x1656 SWAP2 SWAP1 PUSH2 0x249B JUMP JUMPDEST PUSH2 0x1660 SWAP2 SWAP1 PUSH2 0x26D0 JUMP JUMPDEST SWAP3 POP POP POP SWAP2 SWAP1 POP JUMP JUMPDEST PUSH1 0xC SLOAD DUP2 JUMP JUMPDEST PUSH32 0x9F2DF0FED2C77648DE5860A4CC508CD0818C85B8B8A1AB4CEEEF8D981C8956A6 PUSH2 0x1699 DUP2 PUSH2 0x17EF JUMP JUMPDEST PUSH1 0xC PUSH0 DUP2 SLOAD DUP1 SWAP3 SWAP2 SWAP1 PUSH2 0x16AB SWAP1 PUSH2 0x2700 JUMP JUMPDEST SWAP2 SWAP1 POP SSTORE POP PUSH1 0x40 MLOAD DUP1 PUSH1 0x60 ADD PUSH1 0x40 MSTORE DUP1 DUP5 DUP2 MSTORE PUSH1 0x20 ADD DUP4 DUP2 MSTORE PUSH1 0x20 ADD PUSH1 0x1 ISZERO ISZERO DUP2 MSTORE POP PUSH1 0xA PUSH0 PUSH1 0xC SLOAD DUP2 MSTORE PUSH1 0x20 ADD SWAP1 DUP2 MSTORE PUSH1 0x20 ADD PUSH0 KECCAK256 PUSH0 DUP3 ADD MLOAD DUP2 PUSH0 ADD SWAP1 DUP2 PUSH2 0x16F4 SWAP2 SWAP1 PUSH2 0x28E4 JUMP JUMPDEST POP PUSH1 0x20 DUP3 ADD MLOAD DUP2 PUSH1 0x1 ADD SWAP1 DUP2 PUSH2 0x170A SWAP2 SWAP1 PUSH2 0x28E4 JUMP JUMPDEST POP PUSH1 0x40 DUP3 ADD MLOAD DUP2 PUSH1 0x2 ADD PUSH0 PUSH2 0x100 EXP DUP2 SLOAD DUP2 PUSH1 0xFF MUL NOT AND SWAP1 DUP4 ISZERO ISZERO MUL OR SWAP1 SSTORE POP SWAP1 POP POP CALLER PUSH20 0xFFFFFFFFFFFFFFFFFFFFFFFFFFFFFFFFFFFFFFFF AND PUSH32 0xE260F93729F4DE5D60FF8D8AB8C7E6AFC76218C4CC0F6F7E617398E20A358A2D PUSH1 0xC SLOAD DUP6 DUP6 PUSH1 0x40 MLOAD PUSH2 0x1779 SWAP4 SWAP3 SWAP2 SWAP1 PUSH2 0x29B3 JUMP JUMPDEST PUSH1 0x40 MLOAD DUP1 SWAP2 SUB SWAP1 LOG2 POP POP POP JUMP JUMPDEST PUSH0 PUSH32 0x1FFC9A700000000000000000000000000000000000000000000000000000000 PUSH28 0xFFFFFFFFFFFFFFFFFFFFFFFFFFFFFFFFFFFFFFFFFFFFFFFFFFFFFFFF NOT AND DUP3 PUSH28 0xFFFFFFFFFFFFFFFFFFFFFFFFFFFFFFFFFFFFFFFFFFFFFFFFFFFFFFFF NOT AND EQ SWAP1 POP SWAP2 SWAP1 POP JUMP JUMPDEST PUSH2 0x1800 DUP2 PUSH2 0x17FB PUSH2 0x18EC JUMP JUMPDEST PUSH2 0x1AE8 JUMP JUMPDEST POP JUMP JUMPDEST PUSH0 PUSH2 0x180E DUP4 DUP4 PUSH2 0xFE3 JUMP JUMPDEST PUSH2 0x18E2 JUMPI PUSH1 0x1 PUSH0 DUP1 DUP6 DUP2 MSTORE PUSH1 0x20 ADD SWAP1 DUP2 MSTORE PUSH1 0x20 ADD PUSH0 KECCAK256 PUSH0 ADD PUSH0 DUP5 PUSH20 0xFFFFFFFFFFFFFFFFFFFFFFFFFFFFFFFFFFFFFFFF AND PUSH20 0xFFFFFFFFFFFFFFFFFFFFFFFFFFFFFFFFFFFFFFFF AND DUP2 MSTORE PUSH1 0x20 ADD SWAP1 DUP2 MSTORE PUSH1 0x20 ADD PUSH0 KECCAK256 PUSH0 PUSH2 0x100 EXP DUP2 SLOAD DUP2 PUSH1 0xFF MUL NOT AND SWAP1 DUP4 ISZERO ISZERO MUL OR SWAP1 SSTORE POP PUSH2 0x187F PUSH2 0x18EC JUMP JUMPDEST PUSH20 0xFFFFFFFFFFFFFFFFFFFFFFFFFFFFFFFFFFFFFFFF AND DUP3 PUSH20 0xFFFFFFFFFFFFFFFFFFFFFFFFFFFFFFFFFFFFFFFF AND DUP5 PUSH32 0x2F8788117E7EFF1D82E926EC794901D17C78024A50270940304540A733656F0D PUSH1 0x40 MLOAD PUSH1 0x40 MLOAD DUP1 SWAP2 SUB SWAP1 LOG4 PUSH1 0x1 SWAP1 POP PUSH2 0x18E6 JUMP JUMPDEST PUSH0 SWAP1 POP JUMPDEST SWAP3 SWAP2 POP POP JUMP JUMPDEST PUSH0 CALLER SWAP1 POP SWAP1 JUMP JUMPDEST PUSH0 PUSH2 0x18FE DUP4 DUP4 PUSH2 0xFE3 JUMP JUMPDEST ISZERO PUSH2 0x19D2 JUMPI PUSH0 DUP1 PUSH0 DUP6 DUP2 MSTORE PUSH1 0x20 ADD SWAP1 DUP2 MSTORE PUSH1 0x20 ADD PUSH0 KECCAK256 PUSH0 ADD PUSH0 DUP5 PUSH20 0xFFFFFFFFFFFFFFFFFFFFFFFFFFFFFFFFFFFFFFFF AND PUSH20 0xFFFFFFFFFFFFFFFFFFFFFFFFFFFFFFFFFFFFFFFF AND DUP2 MSTORE PUSH1 0x20 ADD SWAP1 DUP2 MSTORE PUSH1 0x20 ADD PUSH0 KECCAK256 PUSH0 PUSH2 0x100 EXP DUP2 SLOAD DUP2 PUSH1 0xFF MUL NOT AND SWAP1 DUP4 ISZERO ISZERO MUL OR SWAP1 SSTORE POP PUSH2 0x196F PUSH2 0x18EC JUMP JUMPDEST PUSH20 0xFFFFFFFFFFFFFFFFFFFFFFFFFFFFFFFFFFFFFFFF AND DUP3 PUSH20 0xFFFFFFFFFFFFFFFFFFFFFFFFFFFFFFFFFFFFFFFF AND DUP5 PUSH32 0xF6391F5C32D9C69D2A47EA670B442974B53935D1EDC7FD64EB21E047A839171B PUSH1 0x40 MLOAD PUSH1 0x40 MLOAD DUP1 SWAP2 SUB SWAP1 LOG4 PUSH1 0x1 SWAP1 POP PUSH2 0x19D6 JUMP JUMPDEST PUSH0 SWAP1 POP JUMPDEST SWAP3 SWAP2 POP POP JUMP JUMPDEST PUSH2 0x19E4 PUSH2 0x1B39 JUMP JUMPDEST PUSH0 PUSH1 0x1 PUSH0 PUSH2 0x100 EXP DUP2 SLOAD DUP2 PUSH1 0xFF MUL NOT AND SWAP1 DUP4 ISZERO ISZERO MUL OR SWAP1 SSTORE POP PUSH32 0x5DB9EE0A495BF2E6FF9C91A7834C1BA4FDD244A5E8AA4E537BD38AEAE4B073AA PUSH2 0x1A26 PUSH2 0x18EC JUMP JUMPDEST PUSH1 0x40 MLOAD PUSH2 0x1A33 SWAP2 SWAP1 PUSH2 0x1F69 JUMP JUMPDEST PUSH1 0x40 MLOAD DUP1 SWAP2 SUB SWAP1 LOG1 JUMP JUMPDEST PUSH2 0x1A45 PUSH2 0x1A9E JUMP JUMPDEST PUSH1 0x1 DUP1 PUSH0 PUSH2 0x100 EXP DUP2 SLOAD DUP2 PUSH1 0xFF MUL NOT AND SWAP1 DUP4 ISZERO ISZERO MUL OR SWAP1 SSTORE POP PUSH32 0x62E78CEA01BEE320CD4E420270B5EA74000D11B0C9F74754EBDBFC544B05A258 PUSH2 0x1A87 PUSH2 0x18EC JUMP JUMPDEST PUSH1 0x40 MLOAD PUSH2 0x1A94 SWAP2 SWAP1 PUSH2 0x1F69 JUMP JUMPDEST PUSH1 0x40 MLOAD DUP1 SWAP2 SUB SWAP1 LOG1 JUMP JUMPDEST PUSH2 0x1AA6 PUSH2 0xF68 JUMP JUMPDEST ISZERO PUSH2 0x1AE6 JUMPI PUSH1 0x40 MLOAD PUSH32 0x8C379A000000000000000000000000000000000000000000000000000000000 DUP2 MSTORE PUSH1 0x4 ADD PUSH2 0x1ADD SWAP1 PUSH2 0x2A40 JUMP JUMPDEST PUSH1 0x40 MLOAD DUP1 SWAP2 SUB SWAP1 REVERT JUMPDEST JUMP JUMPDEST PUSH2 0x1AF2 DUP3 DUP3 PUSH2 0xFE3 JUMP JUMPDEST PUSH2 0x1B35 JUMPI DUP1 DUP3 PUSH1 0x40 MLOAD PUSH32 0xE2517D3F00000000000000000000000000000000000000000000000000000000 DUP2 MSTORE PUSH1 0x4 ADD PUSH2 0x1B2C SWAP3 SWAP2 SWAP1 PUSH2 0x2A5E JUMP JUMPDEST PUSH1 0x40 MLOAD DUP1 SWAP2 SUB SWAP1 REVERT JUMPDEST POP POP JUMP JUMPDEST PUSH2 0x1B41 PUSH2 0xF68 JUMP JUMPDEST PUSH2 0x1B80 JUMPI PUSH1 0x40 MLOAD PUSH32 0x8C379A000000000000000000000000000000000000000000000000000000000 DUP2 MSTORE PUSH1 0x4 ADD PUSH2 0x1B77 SWAP1 PUSH2 0x2ACF JUMP JUMPDEST PUSH1 0x40 MLOAD DUP1 SWAP2 SUB SWAP1 REVERT JUMPDEST JUMP JUMPDEST PUSH0 PUSH1 0x40 MLOAD SWAP1 POP SWAP1 JUMP JUMPDEST PUSH0 DUP1 REVERT JUMPDEST PUSH0 DUP1 REVERT JUMPDEST PUSH0 PUSH32 0xFFFFFFFF00000000000000000000000000000000000000000000000000000000 DUP3 AND SWAP1 POP SWAP2 SWAP1 POP JUMP JUMPDEST PUSH2 0x1BC7 DUP2 PUSH2 0x1B93 JUMP JUMPDEST DUP2 EQ PUSH2 0x1BD1 JUMPI PUSH0 DUP1 REVERT JUMPDEST POP JUMP JUMPDEST PUSH0 DUP2 CALLDATALOAD SWAP1 POP PUSH2 0x1BE2 DUP2 PUSH2 0x1BBE JUMP JUMPDEST SWAP3 SWAP2 POP POP JUMP JUMPDEST PUSH0 PUSH1 0x20 DUP3 DUP5 SUB SLT ISZERO PUSH2 0x1BFD JUMPI PUSH2 0x1BFC PUSH2 0x1B8B JUMP JUMPDEST JUMPDEST PUSH0 PUSH2 0x1C0A DUP5 DUP3 DUP6 ADD PUSH2 0x1BD4 JUMP JUMPDEST SWAP2 POP POP SWAP3 SWAP2 POP POP JUMP JUMPDEST PUSH0 DUP2 ISZERO ISZERO SWAP1 POP SWAP2 SWAP1 POP JUMP JUMPDEST PUSH2 0x1C27 DUP2 PUSH2 0x1C13 JUMP JUMPDEST DUP3 MSTORE POP POP JUMP JUMPDEST PUSH0 PUSH1 0x20 DUP3 ADD SWAP1 POP PUSH2 0x1C40 PUSH0 DUP4 ADD DUP5 PUSH2 0x1C1E JUMP JUMPDEST SWAP3 SWAP2 POP POP JUMP JUMPDEST PUSH0 DUP2 MLOAD SWAP1 POP SWAP2 SWAP1 POP JUMP JUMPDEST PUSH0 DUP3 DUP3 MSTORE PUSH1 0x20 DUP3 ADD SWAP1 POP SWAP3 SWAP2 POP POP JUMP JUMPDEST DUP3 DUP2 DUP4 MCOPY PUSH0 DUP4 DUP4 ADD MSTORE POP POP POP JUMP JUMPDEST PUSH0 PUSH1 0x1F NOT PUSH1 0x1F DUP4 ADD AND SWAP1 POP SWAP2 SWAP1 POP JUMP JUMPDEST PUSH0 PUSH2 0x1C88 DUP3 PUSH2 0x1C46 JUMP JUMPDEST PUSH2 0x1C92 DUP2 DUP6 PUSH2 0x1C50 JUMP JUMPDEST SWAP4 POP PUSH2 0x1CA2 DUP2 DUP6 PUSH1 0x20 DUP7 ADD PUSH2 0x1C60 JUMP JUMPDEST PUSH2 0x1CAB DUP2 PUSH2 0x1C6E JUMP JUMPDEST DUP5 ADD SWAP2 POP POP SWAP3 SWAP2 POP POP JUMP JUMPDEST PUSH0 PUSH1 0x20 DUP3 ADD SWAP1 POP DUP2 DUP2 SUB PUSH0 DUP4 ADD MSTORE PUSH2 0x1CCE DUP2 DUP5 PUSH2 0x1C7E JUMP JUMPDEST SWAP1 POP SWAP3 SWAP2 POP POP JUMP JUMPDEST PUSH0 DUP2 SWAP1 POP SWAP2 SWAP1 POP JUMP JUMPDEST PUSH2 0x1CE8 DUP2 PUSH2 0x1CD6 JUMP JUMPDEST DUP3 MSTORE POP POP JUMP JUMPDEST PUSH0 PUSH1 0x20 DUP3 ADD SWAP1 POP PUSH2 0x1D01 PUSH0 DUP4 ADD DUP5 PUSH2 0x1CDF JUMP JUMPDEST SWAP3 SWAP2 POP POP JUMP JUMPDEST PUSH0 DUP2 SWAP1 POP SWAP2 SWAP1 POP JUMP JUMPDEST PUSH2 0x1D19 DUP2 PUSH2 0x1D07 JUMP JUMPDEST DUP2 EQ PUSH2 0x1D23 JUMPI PUSH0 DUP1 REVERT JUMPDEST POP JUMP JUMPDEST PUSH0 DUP2 CALLDATALOAD SWAP1 POP PUSH2 0x1D34 DUP2 PUSH2 0x1D10 JUMP JUMPDEST SWAP3 SWAP2 POP POP JUMP JUMPDEST PUSH0 PUSH1 0x20 DUP3 DUP5 SUB SLT ISZERO PUSH2 0x1D4F JUMPI PUSH2 0x1D4E PUSH2 0x1B8B JUMP JUMPDEST JUMPDEST PUSH0 PUSH2 0x1D5C DUP5 DUP3 DUP6 ADD PUSH2 0x1D26 JUMP JUMPDEST SWAP2 POP POP SWAP3 SWAP2 POP POP JUMP JUMPDEST PUSH2 0x1D6E DUP2 PUSH2 0x1D07 JUMP JUMPDEST DUP3 MSTORE POP POP JUMP JUMPDEST PUSH0 PUSH1 0x20 DUP3 ADD SWAP1 POP PUSH2 0x1D87 PUSH0 DUP4 ADD DUP5 PUSH2 0x1D65 JUMP JUMPDEST SWAP3 SWAP2 POP POP JUMP JUMPDEST PUSH2 0x1D96 DUP2 PUSH2 0x1CD6 JUMP JUMPDEST DUP2 EQ PUSH2 0x1DA0 JUMPI PUSH0 DUP1 REVERT JUMPDEST POP JUMP JUMPDEST PUSH0 DUP2 CALLDATALOAD SWAP1 POP PUSH2 0x1DB1 DUP2 PUSH2 0x1D8D JUMP JUMPDEST SWAP3 SWAP2 POP POP JUMP JUMPDEST PUSH0 PUSH1 0x20 DUP3 DUP5 SUB SLT ISZERO PUSH2 0x1DCC JUMPI PUSH2 0x1DCB PUSH2 0x1B8B JUMP JUMPDEST JUMPDEST PUSH0 PUSH2 0x1DD9 DUP5 DUP3 DUP6 ADD PUSH2 0x1DA3 JUMP JUMPDEST SWAP2 POP POP SWAP3 SWAP2 POP POP JUMP JUMPDEST PUSH0 PUSH1 0x60 DUP3 ADD SWAP1 POP DUP2 DUP2 SUB PUSH0 DUP4 ADD MSTORE PUSH2 0x1DFA DUP2 DUP7 PUSH2 0x1C7E JUMP JUMPDEST SWAP1 POP DUP2 DUP2 SUB PUSH1 0x20 DUP4 ADD MSTORE PUSH2 0x1E0E DUP2 DUP6 PUSH2 0x1C7E JUMP JUMPDEST SWAP1 POP PUSH2 0x1E1D PUSH1 0x40 DUP4 ADD DUP5 PUSH2 0x1C1E JUMP JUMPDEST SWAP5 SWAP4 POP POP POP POP JUMP JUMPDEST PUSH0 PUSH20 0xFFFFFFFFFFFFFFFFFFFFFFFFFFFFFFFFFFFFFFFF DUP3 AND SWAP1 POP SWAP2 SWAP1 POP JUMP JUMPDEST PUSH0 PUSH2 0x1E4E DUP3 PUSH2 0x1E25 JUMP JUMPDEST SWAP1 POP SWAP2 SWAP1 POP JUMP JUMPDEST PUSH2 0x1E5E DUP2 PUSH2 0x1E44 JUMP JUMPDEST DUP2 EQ PUSH2 0x1E68 JUMPI PUSH0 DUP1 REVERT JUMPDEST POP JUMP JUMPDEST PUSH0 DUP2 CALLDATALOAD SWAP1 POP PUSH2 0x1E79 DUP2 PUSH2 0x1E55 JUMP JUMPDEST SWAP3 SWAP2 POP POP JUMP JUMPDEST PUSH0 DUP1 PUSH1 0x40 DUP4 DUP6 SUB SLT ISZERO PUSH2 0x1E95 JUMPI PUSH2 0x1E94 PUSH2 0x1B8B JUMP JUMPDEST JUMPDEST PUSH0 PUSH2 0x1EA2 DUP6 DUP3 DUP7 ADD PUSH2 0x1D26 JUMP JUMPDEST SWAP3 POP POP PUSH1 0x20 PUSH2 0x1EB3 DUP6 DUP3 DUP7 ADD PUSH2 0x1E6B JUMP JUMPDEST SWAP2 POP POP SWAP3 POP SWAP3 SWAP1 POP JUMP JUMPDEST PUSH0 PUSH1 0xFF DUP3 AND SWAP1 POP SWAP2 SWAP1 POP JUMP JUMPDEST PUSH2 0x1ED2 DUP2 PUSH2 0x1EBD JUMP JUMPDEST DUP3 MSTORE POP POP JUMP JUMPDEST PUSH0 PUSH1 0x20 DUP3 ADD SWAP1 POP PUSH2 0x1EEB PUSH0 DUP4 ADD DUP5 PUSH2 0x1EC9 JUMP JUMPDEST SWAP3 SWAP2 POP POP JUMP JUMPDEST PUSH0 DUP1 PUSH1 0x40 DUP4 DUP6 SUB SLT ISZERO PUSH2 0x1F07 JUMPI PUSH2 0x1F06 PUSH2 0x1B8B JUMP JUMPDEST JUMPDEST PUSH0 PUSH2 0x1F14 DUP6 DUP3 DUP7 ADD PUSH2 0x1E6B JUMP JUMPDEST SWAP3 POP POP PUSH1 0x20 PUSH2 0x1F25 DUP6 DUP3 DUP7 ADD PUSH2 0x1DA3 JUMP JUMPDEST SWAP2 POP POP SWAP3 POP SWAP3 SWAP1 POP JUMP JUMPDEST PUSH0 PUSH1 0x20 DUP3 DUP5 SUB SLT ISZERO PUSH2 0x1F44 JUMPI PUSH2 0x1F43 PUSH2 0x1B8B JUMP JUMPDEST JUMPDEST PUSH0 PUSH2 0x1F51 DUP5 DUP3 DUP6 ADD PUSH2 0x1E6B JUMP JUMPDEST SWAP2 POP POP SWAP3 SWAP2 POP POP JUMP JUMPDEST PUSH2 0x1F63 DUP2 PUSH2 0x1E44 JUMP JUMPDEST DUP3 MSTORE POP POP JUMP JUMPDEST PUSH0 PUSH1 0x20 DUP3 ADD SWAP1 POP PUSH2 0x1F7C PUSH0 DUP4 ADD DUP5 PUSH2 0x1F5A JUMP JUMPDEST SWAP3 SWAP2 POP POP JUMP JUMPDEST PUSH0 DUP1 PUSH1 0x40 DUP4 DUP6 SUB SLT ISZERO PUSH2 0x1F98 JUMPI PUSH2 0x1F97 PUSH2 0x1B8B JUMP JUMPDEST JUMPDEST PUSH0 PUSH2 0x1FA5 DUP6 DUP3 DUP7 ADD PUSH2 0x1DA3 JUMP JUMPDEST SWAP3 POP POP PUSH1 0x20 PUSH2 0x1FB6 DUP6 DUP3 DUP7 ADD PUSH2 0x1DA3 JUMP JUMPDEST SWAP2 POP POP SWAP3 POP SWAP3 SWAP1 POP JUMP JUMPDEST PUSH0 DUP1 REVERT JUMPDEST PUSH0 DUP1 REVERT JUMPDEST PUSH32 0x4E487B7100000000000000000000000000000000000000000000000000000000 PUSH0 MSTORE PUSH1 0x41 PUSH1 0x4 MSTORE PUSH1 0x24 PUSH0 REVERT JUMPDEST PUSH2 0x1FFE DUP3 PUSH2 0x1C6E JUMP JUMPDEST DUP2 ADD DUP2 DUP2 LT PUSH8 0xFFFFFFFFFFFFFFFF DUP3 GT OR ISZERO PUSH2 0x201D JUMPI PUSH2 0x201C PUSH2 0x1FC8 JUMP JUMPDEST JUMPDEST DUP1 PUSH1 0x40 MSTORE POP POP POP JUMP JUMPDEST PUSH0 PUSH2 0x202F PUSH2 0x1B82 JUMP JUMPDEST SWAP1 POP PUSH2 0x203B DUP3 DUP3 PUSH2 0x1FF5 JUMP JUMPDEST SWAP2 SWAP1 POP JUMP JUMPDEST PUSH0 PUSH8 0xFFFFFFFFFFFFFFFF DUP3 GT ISZERO PUSH2 0x205A JUMPI PUSH2 0x2059 PUSH2 0x1FC8 JUMP JUMPDEST JUMPDEST PUSH2 0x2063 DUP3 PUSH2 0x1C6E JUMP JUMPDEST SWAP1 POP PUSH1 0x20 DUP2 ADD SWAP1 POP SWAP2 SWAP1 POP JUMP JUMPDEST DUP3 DUP2 DUP4 CALLDATACOPY PUSH0 DUP4 DUP4 ADD MSTORE POP POP POP JUMP JUMPDEST PUSH0 PUSH2 0x2090 PUSH2 0x208B DUP5 PUSH2 0x2040 JUMP JUMPDEST PUSH2 0x2026 JUMP JUMPDEST SWAP1 POP DUP3 DUP2 MSTORE PUSH1 0x20 DUP2 ADD DUP5 DUP5 DUP5 ADD GT ISZERO PUSH2 0x20AC JUMPI PUSH2 0x20AB PUSH2 0x1FC4 JUMP JUMPDEST JUMPDEST PUSH2 0x20B7 DUP5 DUP3 DUP6 PUSH2 0x2070 JUMP JUMPDEST POP SWAP4 SWAP3 POP POP POP JUMP JUMPDEST PUSH0 DUP3 PUSH1 0x1F DUP4 ADD SLT PUSH2 0x20D3 JUMPI PUSH2 0x20D2 PUSH2 0x1FC0 JUMP JUMPDEST JUMPDEST DUP2 CALLDATALOAD PUSH2 0x20E3 DUP5 DUP3 PUSH1 0x20 DUP7 ADD PUSH2 0x207E JUMP JUMPDEST SWAP2 POP POP SWAP3 SWAP2 POP POP JUMP JUMPDEST PUSH0 DUP1 PUSH1 0x40 DUP4 DUP6 SUB SLT ISZERO PUSH2 0x2102 JUMPI PUSH2 0x2101 PUSH2 0x1B8B JUMP JUMPDEST JUMPDEST PUSH0 DUP4 ADD CALLDATALOAD PUSH8 0xFFFFFFFFFFFFFFFF DUP2 GT ISZERO PUSH2 0x211F JUMPI PUSH2 0x211E PUSH2 0x1B8F JUMP JUMPDEST JUMPDEST PUSH2 0x212B DUP6 DUP3 DUP7 ADD PUSH2 0x20BF JUMP JUMPDEST SWAP3 POP POP PUSH1 0x20 DUP4 ADD CALLDATALOAD PUSH8 0xFFFFFFFFFFFFFFFF DUP2 GT ISZERO PUSH2 0x214C JUMPI PUSH2 0x214B PUSH2 0x1B8F JUMP JUMPDEST JUMPDEST PUSH2 0x2158 DUP6 DUP3 DUP7 ADD PUSH2 0x20BF JUMP JUMPDEST SWAP2 POP POP SWAP3 POP SWAP3 SWAP1 POP JUMP JUMPDEST PUSH32 0x4E487B7100000000000000000000000000000000000000000000000000000000 PUSH0 MSTORE PUSH1 0x22 PUSH1 0x4 MSTORE PUSH1 0x24 PUSH0 REVERT JUMPDEST PUSH0 PUSH1 0x2 DUP3 DIV SWAP1 POP PUSH1 0x1 DUP3 AND DUP1 PUSH2 0x21A6 JUMPI PUSH1 0x7F DUP3 AND SWAP2 POP JUMPDEST PUSH1 0x20 DUP3 LT DUP2 SUB PUSH2 0x21B9 JUMPI PUSH2 0x21B8 PUSH2 0x2162 JUMP JUMPDEST JUMPDEST POP SWAP2 SWAP1 POP JUMP JUMPDEST PUSH32 0x496E73756666696369656E74207374616B65642062616C616E63650000000000 PUSH0 DUP3 ADD MSTORE POP JUMP JUMPDEST PUSH0 PUSH2 0x21F3 PUSH1 0x1B DUP4 PUSH2 0x1C50 JUMP JUMPDEST SWAP2 POP PUSH2 0x21FE DUP3 PUSH2 0x21BF JUMP JUMPDEST PUSH1 0x20 DUP3 ADD SWAP1 POP SWAP2 SWAP1 POP JUMP JUMPDEST PUSH0 PUSH1 0x20 DUP3 ADD SWAP1 POP DUP2 DUP2 SUB PUSH0 DUP4 ADD MSTORE PUSH2 0x2220 DUP2 PUSH2 0x21E7 JUMP JUMPDEST SWAP1 POP SWAP2 SWAP1 POP JUMP JUMPDEST PUSH32 0x4E487B7100000000000000000000000000000000000000000000000000000000 PUSH0 MSTORE PUSH1 0x11 PUSH1 0x4 MSTORE PUSH1 0x24 PUSH0 REVERT JUMPDEST PUSH0 PUSH2 0x225E DUP3 PUSH2 0x1CD6 JUMP JUMPDEST SWAP2 POP PUSH2 0x2269 DUP4 PUSH2 0x1CD6 JUMP JUMPDEST SWAP3 POP DUP3 DUP3 SUB SWAP1 POP DUP2 DUP2 GT ISZERO PUSH2 0x2281 JUMPI PUSH2 0x2280 PUSH2 0x2227 JUMP JUMPDEST JUMPDEST SWAP3 SWAP2 POP POP JUMP JUMPDEST PUSH0 PUSH2 0x2291 DUP3 PUSH2 0x1CD6 JUMP JUMPDEST SWAP2 POP PUSH2 0x229C DUP4 PUSH2 0x1CD6 JUMP JUMPDEST SWAP3 POP DUP3 DUP3 ADD SWAP1 POP DUP1 DUP3 GT ISZERO PUSH2 0x22B4 JUMPI PUSH2 0x22B3 PUSH2 0x2227 JUMP JUMPDEST JUMPDEST SWAP3 SWAP2 POP POP JUMP JUMPDEST PUSH32 0x54726561737572792062616C616E636520696E73756666696369656E74000000 PUSH0 DUP3 ADD MSTORE POP JUMP JUMPDEST PUSH0 PUSH2 0x22EE PUSH1 0x1D DUP4 PUSH2 0x1C50 JUMP JUMPDEST SWAP2 POP PUSH2 0x22F9 DUP3 PUSH2 0x22BA JUMP JUMPDEST PUSH1 0x20 DUP3 ADD SWAP1 POP SWAP2 SWAP1 POP JUMP JUMPDEST PUSH0 PUSH1 0x20 DUP3 ADD SWAP1 POP DUP2 DUP2 SUB PUSH0 DUP4 ADD MSTORE PUSH2 0x231B DUP2 PUSH2 0x22E2 JUMP JUMPDEST SWAP1 POP SWAP2 SWAP1 POP JUMP JUMPDEST PUSH0 DUP2 PUSH1 0x1 SHR SWAP1 POP SWAP2 SWAP1 POP JUMP JUMPDEST PUSH0 DUP1 DUP3 SWAP2 POP DUP4 SWAP1 POP JUMPDEST PUSH1 0x1 DUP6 GT ISZERO PUSH2 0x2377 JUMPI DUP1 DUP7 DIV DUP2 GT ISZERO PUSH2 0x2353 JUMPI PUSH2 0x2352 PUSH2 0x2227 JUMP JUMPDEST JUMPDEST PUSH1 0x1 DUP6 AND ISZERO PUSH2 0x2362 JUMPI DUP1 DUP3 MUL SWAP2 POP JUMPDEST DUP1 DUP2 MUL SWAP1 POP PUSH2 0x2370 DUP6 PUSH2 0x2322 JUMP JUMPDEST SWAP5 POP PUSH2 0x2337 JUMP JUMPDEST SWAP5 POP SWAP5 SWAP3 POP POP POP JUMP JUMPDEST PUSH0 DUP3 PUSH2 0x238F JUMPI PUSH1 0x1 SWAP1 POP PUSH2 0x244A JUMP JUMPDEST DUP2 PUSH2 0x239C JUMPI PUSH0 SWAP1 POP PUSH2 0x244A JUMP JUMPDEST DUP2 PUSH1 0x1 DUP2 EQ PUSH2 0x23B2 JUMPI PUSH1 0x2 DUP2 EQ PUSH2 0x23BC JUMPI PUSH2 0x23EB JUMP JUMPDEST PUSH1 0x1 SWAP2 POP POP PUSH2 0x244A JUMP JUMPDEST PUSH1 0xFF DUP5 GT ISZERO PUSH2 0x23CE JUMPI PUSH2 0x23CD PUSH2 0x2227 JUMP JUMPDEST JUMPDEST DUP4 PUSH1 0x2 EXP SWAP2 POP DUP5 DUP3 GT ISZERO PUSH2 0x23E5 JUMPI PUSH2 0x23E4 PUSH2 0x2227 JUMP JUMPDEST JUMPDEST POP PUSH2 0x244A JUMP JUMPDEST POP PUSH1 0x20 DUP4 LT PUSH2 0x133 DUP4 LT AND PUSH1 0x4E DUP5 LT PUSH1 0xB DUP5 LT AND OR ISZERO PUSH2 0x2420 JUMPI DUP3 DUP3 EXP SWAP1 POP DUP4 DUP2 GT ISZERO PUSH2 0x241B JUMPI PUSH2 0x241A PUSH2 0x2227 JUMP JUMPDEST JUMPDEST PUSH2 0x244A JUMP JUMPDEST PUSH2 0x242D DUP5 DUP5 DUP5 PUSH1 0x1 PUSH2 0x232E JUMP JUMPDEST SWAP3 POP SWAP1 POP DUP2 DUP5 DIV DUP2 GT ISZERO PUSH2 0x2444 JUMPI PUSH2 0x2443 PUSH2 0x2227 JUMP JUMPDEST JUMPDEST DUP2 DUP2 MUL SWAP1 POP JUMPDEST SWAP4 SWAP3 POP POP POP JUMP JUMPDEST PUSH0 PUSH2 0x245B DUP3 PUSH2 0x1CD6 JUMP JUMPDEST SWAP2 POP PUSH2 0x2466 DUP4 PUSH2 0x1EBD JUMP JUMPDEST SWAP3 POP PUSH2 0x2493 PUSH32 0xFFFFFFFFFFFFFFFFFFFFFFFFFFFFFFFFFFFFFFFFFFFFFFFFFFFFFFFFFFFFFFFF DUP5 DUP5 PUSH2 0x2380 JUMP JUMPDEST SWAP1 POP SWAP3 SWAP2 POP POP JUMP JUMPDEST PUSH0 PUSH2 0x24A5 DUP3 PUSH2 0x1CD6 JUMP JUMPDEST SWAP2 POP PUSH2 0x24B0 DUP4 PUSH2 0x1CD6 JUMP JUMPDEST SWAP3 POP DUP3 DUP3 MUL PUSH2 0x24BE DUP2 PUSH2 0x1CD6 JUMP JUMPDEST SWAP2 POP DUP3 DUP3 DIV DUP5 EQ DUP4 ISZERO OR PUSH2 0x24D5 JUMPI PUSH2 0x24D4 PUSH2 0x2227 JUMP JUMPDEST JUMPDEST POP SWAP3 SWAP2 POP POP JUMP JUMPDEST PUSH32 0x496E73756666696369656E742062616C616E636520746F206275726E00000000 PUSH0 DUP3 ADD MSTORE POP JUMP JUMPDEST PUSH0 PUSH2 0x2510 PUSH1 0x1C DUP4 PUSH2 0x1C50 JUMP JUMPDEST SWAP2 POP PUSH2 0x251B DUP3 PUSH2 0x24DC JUMP JUMPDEST PUSH1 0x20 DUP3 ADD SWAP1 POP SWAP2 SWAP1 POP JUMP JUMPDEST PUSH0 PUSH1 0x20 DUP3 ADD SWAP1 POP DUP2 DUP2 SUB PUSH0 DUP4 ADD MSTORE PUSH2 0x253D DUP2 PUSH2 0x2504 JUMP JUMPDEST SWAP1 POP SWAP2 SWAP1 POP JUMP JUMPDEST PUSH32 0x496E73756666696369656E742062616C616E636520746F207374616B65000000 PUSH0 DUP3 ADD MSTORE POP JUMP JUMPDEST PUSH0 PUSH2 0x2578 PUSH1 0x1D DUP4 PUSH2 0x1C50 JUMP JUMPDEST SWAP2 POP PUSH2 0x2583 DUP3 PUSH2 0x2544 JUMP JUMPDEST PUSH1 0x20 DUP3 ADD SWAP1 POP SWAP2 SWAP1 POP JUMP JUMPDEST PUSH0 PUSH1 0x20 DUP3 ADD SWAP1 POP DUP2 DUP2 SUB PUSH0 DUP4 ADD MSTORE PUSH2 0x25A5 DUP2 PUSH2 0x256C JUMP JUMPDEST SWAP1 POP SWAP2 SWAP1 POP JUMP JUMPDEST PUSH32 0x496E73756666696369656E742062616C616E6365000000000000000000000000 PUSH0 DUP3 ADD MSTORE POP JUMP JUMPDEST PUSH0 PUSH2 0x25E0 PUSH1 0x14 DUP4 PUSH2 0x1C50 JUMP JUMPDEST SWAP2 POP PUSH2 0x25EB DUP3 PUSH2 0x25AC JUMP JUMPDEST PUSH1 0x20 DUP3 ADD SWAP1 POP SWAP2 SWAP1 POP JUMP JUMPDEST PUSH0 PUSH1 0x20 DUP3 ADD SWAP1 POP DUP2 DUP2 SUB PUSH0 DUP4 ADD MSTORE PUSH2 0x260D DUP2 PUSH2 0x25D4 JUMP JUMPDEST SWAP1 POP SWAP2 SWAP1 POP JUMP JUMPDEST PUSH32 0x496E73756666696369656E7420746F6B656E7320746F20766F74650000000000 PUSH0 DUP3 ADD MSTORE POP JUMP JUMPDEST PUSH0 PUSH2 0x2648 PUSH1 0x1B DUP4 PUSH2 0x1C50 JUMP JUMPDEST SWAP2 POP PUSH2 0x2653 DUP3 PUSH2 0x2614 JUMP JUMPDEST PUSH1 0x20 DUP3 ADD SWAP1 POP SWAP2 SWAP1 POP JUMP JUMPDEST PUSH0 PUSH1 0x20 DUP3 ADD SWAP1 POP DUP2 DUP2 SUB PUSH0 DUP4 ADD MSTORE PUSH2 0x2675 DUP2 PUSH2 0x263C JUMP JUMPDEST SWAP1 POP SWAP2 SWAP1 POP JUMP JUMPDEST PUSH0 PUSH1 0x40 DUP3 ADD SWAP1 POP PUSH2 0x268F PUSH0 DUP4 ADD DUP6 PUSH2 0x1CDF JUMP JUMPDEST PUSH2 0x269C PUSH1 0x20 DUP4 ADD DUP5 PUSH2 0x1CDF JUMP JUMPDEST SWAP4 SWAP3 POP POP POP JUMP JUMPDEST PUSH32 0x4E487B7100000000000000000000000000000000000000000000000000000000 PUSH0 MSTORE PUSH1 0x12 PUSH1 0x4 MSTORE PUSH1 0x24 PUSH0 REVERT JUMPDEST PUSH0 PUSH2 0x26DA DUP3 PUSH2 0x1CD6 JUMP JUMPDEST SWAP2 POP PUSH2 0x26E5 DUP4 PUSH2 0x1CD6 JUMP JUMPDEST SWAP3 POP DUP3 PUSH2 0x26F5 JUMPI PUSH2 0x26F4 PUSH2 0x26A3 JUMP JUMPDEST JUMPDEST DUP3 DUP3 DIV SWAP1 POP SWAP3 SWAP2 POP POP JUMP JUMPDEST PUSH0 PUSH2 0x270A DUP3 PUSH2 0x1CD6 JUMP JUMPDEST SWAP2 POP PUSH32 0xFFFFFFFFFFFFFFFFFFFFFFFFFFFFFFFFFFFFFFFFFFFFFFFFFFFFFFFFFFFFFFFF DUP3 SUB PUSH2 0x273C JUMPI PUSH2 0x273B PUSH2 0x2227 JUMP JUMPDEST JUMPDEST PUSH1 0x1 DUP3 ADD SWAP1 POP SWAP2 SWAP1 POP JUMP JUMPDEST PUSH0 DUP2 SWAP1 POP DUP2 PUSH0 MSTORE PUSH1 0x20 PUSH0 KECCAK256 SWAP1 POP SWAP2 SWAP1 POP JUMP JUMPDEST PUSH0 PUSH1 0x20 PUSH1 0x1F DUP4 ADD DIV SWAP1 POP SWAP2 SWAP1 POP JUMP JUMPDEST PUSH0 DUP3 DUP3 SHL SWAP1 POP SWAP3 SWAP2 POP POP JUMP JUMPDEST PUSH0 PUSH1 0x8 DUP4 MUL PUSH2 0x27A3 PUSH32 0xFFFFFFFFFFFFFFFFFFFFFFFFFFFFFFFFFFFFFFFFFFFFFFFFFFFFFFFFFFFFFFFF DUP3 PUSH2 0x2768 JUMP JUMPDEST PUSH2 0x27AD DUP7 DUP4 PUSH2 0x2768 JUMP JUMPDEST SWAP6 POP DUP1 NOT DUP5 AND SWAP4 POP DUP1 DUP7 AND DUP5 OR SWAP3 POP POP POP SWAP4 SWAP3 POP POP POP JUMP JUMPDEST PUSH0 DUP2 SWAP1 POP SWAP2 SWAP1 POP JUMP JUMPDEST PUSH0 PUSH2 0x27E8 PUSH2 0x27E3 PUSH2 0x27DE DUP5 PUSH2 0x1CD6 JUMP JUMPDEST PUSH2 0x27C5 JUMP JUMPDEST PUSH2 0x1CD6 JUMP JUMPDEST SWAP1 POP SWAP2 SWAP1 POP JUMP JUMPDEST PUSH0 DUP2 SWAP1 POP SWAP2 SWAP1 POP JUMP JUMPDEST PUSH2 0x2801 DUP4 PUSH2 0x27CE JUMP JUMPDEST PUSH2 0x2815 PUSH2 0x280D DUP3 PUSH2 0x27EF JUMP JUMPDEST DUP5 DUP5 SLOAD PUSH2 0x2774 JUMP JUMPDEST DUP3 SSTORE POP POP POP POP JUMP JUMPDEST PUSH0 SWAP1 JUMP JUMPDEST PUSH2 0x2829 PUSH2 0x281D JUMP JUMPDEST PUSH2 0x2834 DUP2 DUP5 DUP5 PUSH2 0x27F8 JUMP JUMPDEST POP POP POP JUMP JUMPDEST JUMPDEST DUP2 DUP2 LT ISZERO PUSH2 0x2857 JUMPI PUSH2 0x284C PUSH0 DUP3 PUSH2 0x2821 JUMP JUMPDEST PUSH1 0x1 DUP2 ADD SWAP1 POP PUSH2 0x283A JUMP JUMPDEST POP POP JUMP JUMPDEST PUSH1 0x1F DUP3 GT ISZERO PUSH2 0x289C JUMPI PUSH2 0x286D DUP2 PUSH2 0x2747 JUMP JUMPDEST PUSH2 0x2876 DUP5 PUSH2 0x2759 JUMP JUMPDEST DUP2 ADD PUSH1 0x20 DUP6 LT ISZERO PUSH2 0x2885 JUMPI DUP2 SWAP1 POP JUMPDEST PUSH2 0x2899 PUSH2 0x2891 DUP6 PUSH2 0x2759 JUMP JUMPDEST DUP4 ADD DUP3 PUSH2 0x2839 JUMP JUMPDEST POP POP JUMPDEST POP POP POP JUMP JUMPDEST PUSH0 DUP3 DUP3 SHR SWAP1 POP SWAP3 SWAP2 POP POP JUMP JUMPDEST PUSH0 PUSH2 0x28BC PUSH0 NOT DUP5 PUSH1 0x8 MUL PUSH2 0x28A1 JUMP JUMPDEST NOT DUP1 DUP4 AND SWAP2 POP POP SWAP3 SWAP2 POP POP JUMP JUMPDEST PUSH0 PUSH2 0x28D4 DUP4 DUP4 PUSH2 0x28AD JUMP JUMPDEST SWAP2 POP DUP3 PUSH1 0x2 MUL DUP3 OR SWAP1 POP SWAP3 SWAP2 POP POP JUMP JUMPDEST PUSH2 0x28ED DUP3 PUSH2 0x1C46 JUMP JUMPDEST PUSH8 0xFFFFFFFFFFFFFFFF DUP2 GT ISZERO PUSH2 0x2906 JUMPI PUSH2 0x2905 PUSH2 0x1FC8 JUMP JUMPDEST JUMPDEST PUSH2 0x2910 DUP3 SLOAD PUSH2 0x218F JUMP JUMPDEST PUSH2 0x291B DUP3 DUP3 DUP6 PUSH2 0x285B JUMP JUMPDEST PUSH0 PUSH1 0x20 SWAP1 POP PUSH1 0x1F DUP4 GT PUSH1 0x1 DUP2 EQ PUSH2 0x294C JUMPI PUSH0 DUP5 ISZERO PUSH2 0x293A JUMPI DUP3 DUP8 ADD MLOAD SWAP1 POP JUMPDEST PUSH2 0x2944 DUP6 DUP3 PUSH2 0x28C9 JUMP JUMPDEST DUP7 SSTORE POP PUSH2 0x29AB JUMP JUMPDEST PUSH1 0x1F NOT DUP5 AND PUSH2 0x295A DUP7 PUSH2 0x2747 JUMP JUMPDEST PUSH0 JUMPDEST DUP3 DUP2 LT ISZERO PUSH2 0x2981 JUMPI DUP5 DUP10 ADD MLOAD DUP3 SSTORE PUSH1 0x1 DUP3 ADD SWAP2 POP PUSH1 0x20 DUP6 ADD SWAP5 POP PUSH1 0x20 DUP2 ADD SWAP1 POP PUSH2 0x295C JUMP JUMPDEST DUP7 DUP4 LT ISZERO PUSH2 0x299E JUMPI DUP5 DUP10 ADD MLOAD PUSH2 0x299A PUSH1 0x1F DUP10 AND DUP3 PUSH2 0x28AD JUMP JUMPDEST DUP4 SSTORE POP JUMPDEST PUSH1 0x1 PUSH1 0x2 DUP9 MUL ADD DUP9 SSTORE POP POP POP JUMPDEST POP POP POP POP POP POP JUMP JUMPDEST PUSH0 PUSH1 0x60 DUP3 ADD SWAP1 POP PUSH2 0x29C6 PUSH0 DUP4 ADD DUP7 PUSH2 0x1CDF JUMP JUMPDEST DUP2 DUP2 SUB PUSH1 0x20 DUP4 ADD MSTORE PUSH2 0x29D8 DUP2 DUP6 PUSH2 0x1C7E JUMP JUMPDEST SWAP1 POP DUP2 DUP2 SUB PUSH1 0x40 DUP4 ADD MSTORE PUSH2 0x29EC DUP2 DUP5 PUSH2 0x1C7E JUMP JUMPDEST SWAP1 POP SWAP5 SWAP4 POP POP POP POP JUMP JUMPDEST PUSH32 0x5061757361626C653A2070617573656400000000000000000000000000000000 PUSH0 DUP3 ADD MSTORE POP JUMP JUMPDEST PUSH0 PUSH2 0x2A2A PUSH1 0x10 DUP4 PUSH2 0x1C50 JUMP JUMPDEST SWAP2 POP PUSH2 0x2A35 DUP3 PUSH2 0x29F6 JUMP JUMPDEST PUSH1 0x20 DUP3 ADD SWAP1 POP SWAP2 SWAP1 POP JUMP JUMPDEST PUSH0 PUSH1 0x20 DUP3 ADD SWAP1 POP DUP2 DUP2 SUB PUSH0 DUP4 ADD MSTORE PUSH2 0x2A57 DUP2 PUSH2 0x2A1E JUMP JUMPDEST SWAP1 POP SWAP2 SWAP1 POP JUMP JUMPDEST PUSH0 PUSH1 0x40 DUP3 ADD SWAP1 POP PUSH2 0x2A71 PUSH0 DUP4 ADD DUP6 PUSH2 0x1F5A JUMP JUMPDEST PUSH2 0x2A7E PUSH1 0x20 DUP4 ADD DUP5 PUSH2 0x1D65 JUMP JUMPDEST SWAP4 SWAP3 POP POP POP JUMP JUMPDEST PUSH32 0x5061757361626C653A206E6F7420706175736564000000000000000000000000 PUSH0 DUP3 ADD MSTORE POP JUMP JUMPDEST PUSH0 PUSH2 0x2AB9 PUSH1 0x14 DUP4 PUSH2 0x1C50 JUMP JUMPDEST SWAP2 POP PUSH2 0x2AC4 DUP3 PUSH2 0x2A85 JUMP JUMPDEST PUSH1 0x20 DUP3 ADD SWAP1 POP SWAP2 SWAP1 POP JUMP JUMPDEST PUSH0 PUSH1 0x20 DUP3 ADD SWAP1 POP DUP2 DUP2 SUB PUSH0 DUP4 ADD MSTORE PUSH2 0x2AE6 DUP2 PUSH2 0x2AAD JUMP JUMPDEST SWAP1 POP SWAP2 SWAP1 POP JUMP INVALID LOG2 PUSH5 0x6970667358 0x22 SLT KECCAK256 0xF6 CODECOPY BLOBHASH PUSH23 0xAD6DF3CAE1B51011B2AD02802D321385EA28A0426A3F6B SUB LOG4 LOG2 0xE6 BYTE PUSH5 0x736F6C6343 STOP ADDMOD BYTE STOP CALLER "
		},
		"gasEstimates": {
			"creation": {
				"codeDepositCost": "2208600",
				"executionCost": "infinite",
				"totalCost": "infinite"
			},
			"external": {
				"DEFAULT_ADMIN_ROLE()": "419",
				"MINTER_ROLE()": "369",
				"TREASURY_ROLE()": "414",
				"balanceOf(address)": "2870",
				"burn(uint256)": "infinite",
				"calculateReward(address)": "infinite",
				"claimRewards()": "infinite",
				"decimals()": "2512",
				"getRoleAdmin(bytes32)": "infinite",
				"grantRole(bytes32,address)": "infinite",
				"hasRole(bytes32,address)": "3234",
				"mint(address,uint256)": "infinite",
				"mintNFT(string,string)": "infinite",
				"name()": "infinite",
				"nftCounter()": "2535",
				"nfts(uint256)": "infinite",
				"pause()": "infinite",
				"paused()": "2562",
				"renounceRole(bytes32,address)": "infinite",
				"revokeRole(bytes32,address)": "infinite",
				"rewardsClaimed(address)": "2913",
				"stake(uint256)": "infinite",
				"stakedBalance(address)": "2913",
				"supportsInterface(bytes4)": "764",
				"symbol()": "infinite",
				"totalSupply()": "2538",
				"totalVotes()": "2516",
				"transfer(address,uint256)": "infinite",
				"treasury()": "2554",
				"unpause()": "infinite",
				"unstake(uint256)": "infinite",
				"vote(uint256,uint256)": "infinite",
				"votes(address,uint256)": "infinite"
			}
		},
		"methodIdentifiers": {
			"DEFAULT_ADMIN_ROLE()": "a217fddf",
			"MINTER_ROLE()": "d5391393",
			"TREASURY_ROLE()": "d11a57ec",
			"balanceOf(address)": "70a08231",
			"burn(uint256)": "42966c68",
			"calculateReward(address)": "d82e3962",
			"claimRewards()": "372500ab",
			"decimals()": "313ce567",
			"getRoleAdmin(bytes32)": "248a9ca3",
			"grantRole(bytes32,address)": "2f2ff15d",
			"hasRole(bytes32,address)": "91d14854",
			"mint(address,uint256)": "40c10f19",
			"mintNFT(string,string)": "e9605544",
			"name()": "06fdde03",
			"nftCounter()": "e574609e",
			"nfts(uint256)": "265aa621",
			"pause()": "8456cb59",
			"paused()": "5c975abb",
			"renounceRole(bytes32,address)": "36568abe",
			"revokeRole(bytes32,address)": "d547741f",
			"rewardsClaimed(address)": "d3f730fd",
			"stake(uint256)": "a694fc3a",
			"stakedBalance(address)": "60217267",
			"supportsInterface(bytes4)": "01ffc9a7",
			"symbol()": "95d89b41",
			"totalSupply()": "18160ddd",
			"totalVotes()": "0d15fd77",
			"transfer(address,uint256)": "a9059cbb",
			"treasury()": "61d027b3",
			"unpause()": "3f4ba83a",
			"unstake(uint256)": "2e17de78",
			"vote(uint256,uint256)": "b384abef",
			"votes(address,uint256)": "9f2524ee"
		}
	},
	"abi": [
		{
			"inputs": [
				{
					"internalType": "uint256",
					"name": "initialSupply",
					"type": "uint256"
				},
				{
					"internalType": "address",
					"name": "_treasury",
					"type": "address"
				}
			],
			"stateMutability": "nonpayable",
			"type": "constructor"
		},
		{
			"inputs": [],
			"name": "AccessControlBadConfirmation",
			"type": "error"
		},
		{
			"inputs": [
				{
					"internalType": "address",
					"name": "account",
					"type": "address"
				},
				{
					"internalType": "bytes32",
					"name": "neededRole",
					"type": "bytes32"
				}
			],
			"name": "AccessControlUnauthorizedAccount",
			"type": "error"
		},
		{
			"anonymous": false,
			"inputs": [
				{
					"indexed": true,
					"internalType": "address",
					"name": "burner",
					"type": "address"
				},
				{
					"indexed": false,
					"internalType": "uint256",
					"name": "amount",
					"type": "uint256"
				}
			],
			"name": "Burn",
			"type": "event"
		},
		{
			"anonymous": false,
			"inputs": [
				{
					"indexed": true,
					"internalType": "address",
					"name": "owner",
					"type": "address"
				},
				{
					"indexed": false,
					"internalType": "uint256",
					"name": "nftId",
					"type": "uint256"
				},
				{
					"indexed": false,
					"internalType": "string",
					"name": "name",
					"type": "string"
				},
				{
					"indexed": false,
					"internalType": "string",
					"name": "uri",
					"type": "string"
				}
			],
			"name": "NFTMinted",
			"type": "event"
		},
		{
			"anonymous": false,
			"inputs": [
				{
					"indexed": false,
					"internalType": "address",
					"name": "account",
					"type": "address"
				}
			],
			"name": "Paused",
			"type": "event"
		},
		{
			"anonymous": false,
			"inputs": [
				{
					"indexed": true,
					"internalType": "address",
					"name": "staker",
					"type": "address"
				},
				{
					"indexed": false,
					"internalType": "uint256",
					"name": "reward",
					"type": "uint256"
				}
			],
			"name": "RewardPaid",
			"type": "event"
		},
		{
			"anonymous": false,
			"inputs": [
				{
					"indexed": true,
					"internalType": "bytes32",
					"name": "role",
					"type": "bytes32"
				},
				{
					"indexed": true,
					"internalType": "bytes32",
					"name": "previousAdminRole",
					"type": "bytes32"
				},
				{
					"indexed": true,
					"internalType": "bytes32",
					"name": "newAdminRole",
					"type": "bytes32"
				}
			],
			"name": "RoleAdminChanged",
			"type": "event"
		},
		{
			"anonymous": false,
			"inputs": [
				{
					"indexed": true,
					"internalType": "bytes32",
					"name": "role",
					"type": "bytes32"
				},
				{
					"indexed": true,
					"internalType": "address",
					"name": "account",
					"type": "address"
				},
				{
					"indexed": true,
					"internalType": "address",
					"name": "sender",
					"type": "address"
				}
			],
			"name": "RoleGranted",
			"type": "event"
		},
		{
			"anonymous": false,
			"inputs": [
				{
					"indexed": true,
					"internalType": "bytes32",
					"name": "role",
					"type": "bytes32"
				},
				{
					"indexed": true,
					"internalType": "address",
					"name": "account",
					"type": "address"
				},
				{
					"indexed": true,
					"internalType": "address",
					"name": "sender",
					"type": "address"
				}
			],
			"name": "RoleRevoked",
			"type": "event"
		},
		{
			"anonymous": false,
			"inputs": [
				{
					"indexed": true,
					"internalType": "address",
					"name": "staker",
					"type": "address"
				},
				{
					"indexed": false,
					"internalType": "uint256",
					"name": "value",
					"type": "uint256"
				}
			],
			"name": "Stake",
			"type": "event"
		},
		{
			"anonymous": false,
			"inputs": [
				{
					"indexed": true,
					"internalType": "address",
					"name": "from",
					"type": "address"
				},
				{
					"indexed": true,
					"internalType": "address",
					"name": "to",
					"type": "address"
				},
				{
					"indexed": false,
					"internalType": "uint256",
					"name": "value",
					"type": "uint256"
				}
			],
			"name": "Transfer",
			"type": "event"
		},
		{
			"anonymous": false,
			"inputs": [
				{
					"indexed": false,
					"internalType": "address",
					"name": "account",
					"type": "address"
				}
			],
			"name": "Unpaused",
			"type": "event"
		},
		{
			"anonymous": false,
			"inputs": [
				{
					"indexed": true,
					"internalType": "address",
					"name": "staker",
					"type": "address"
				},
				{
					"indexed": false,
					"internalType": "uint256",
					"name": "value",
					"type": "uint256"
				}
			],
			"name": "Unstake",
			"type": "event"
		},
		{
			"anonymous": false,
			"inputs": [
				{
					"indexed": true,
					"internalType": "address",
					"name": "voter",
					"type": "address"
				},
				{
					"indexed": false,
					"internalType": "uint256",
					"name": "proposalId",
					"type": "uint256"
				},
				{
					"indexed": false,
					"internalType": "uint256",
					"name": "weight",
					"type": "uint256"
				}
			],
			"name": "Voted",
			"type": "event"
		},
		{
			"inputs": [],
			"name": "DEFAULT_ADMIN_ROLE",
			"outputs": [
				{
					"internalType": "bytes32",
					"name": "",
					"type": "bytes32"
				}
			],
			"stateMutability": "view",
			"type": "function"
		},
		{
			"inputs": [],
			"name": "MINTER_ROLE",
			"outputs": [
				{
					"internalType": "bytes32",
					"name": "",
					"type": "bytes32"
				}
			],
			"stateMutability": "view",
			"type": "function"
		},
		{
			"inputs": [],
			"name": "TREASURY_ROLE",
			"outputs": [
				{
					"internalType": "bytes32",
					"name": "",
					"type": "bytes32"
				}
			],
			"stateMutability": "view",
			"type": "function"
		},
		{
			"inputs": [
				{
					"internalType": "address",
					"name": "",
					"type": "address"
				}
			],
			"name": "balanceOf",
			"outputs": [
				{
					"internalType": "uint256",
					"name": "",
					"type": "uint256"
				}
			],
			"stateMutability": "view",
			"type": "function"
		},
		{
			"inputs": [
				{
					"internalType": "uint256",
					"name": "amount",
					"type": "uint256"
				}
			],
			"name": "burn",
			"outputs": [],
			"stateMutability": "nonpayable",
			"type": "function"
		},
		{
			"inputs": [
				{
					"internalType": "address",
					"name": "staker",
					"type": "address"
				}
			],
			"name": "calculateReward",
			"outputs": [
				{
					"internalType": "uint256",
					"name": "",
					"type": "uint256"
				}
			],
			"stateMutability": "view",
			"type": "function"
		},
		{
			"inputs": [],
			"name": "claimRewards",
			"outputs": [],
			"stateMutability": "nonpayable",
			"type": "function"
		},
		{
			"inputs": [],
			"name": "decimals",
			"outputs": [
				{
					"internalType": "uint8",
					"name": "",
					"type": "uint8"
				}
			],
			"stateMutability": "view",
			"type": "function"
		},
		{
			"inputs": [
				{
					"internalType": "bytes32",
					"name": "role",
					"type": "bytes32"
				}
			],
			"name": "getRoleAdmin",
			"outputs": [
				{
					"internalType": "bytes32",
					"name": "",
					"type": "bytes32"
				}
			],
			"stateMutability": "view",
			"type": "function"
		},
		{
			"inputs": [
				{
					"internalType": "bytes32",
					"name": "role",
					"type": "bytes32"
				},
				{
					"internalType": "address",
					"name": "account",
					"type": "address"
				}
			],
			"name": "grantRole",
			"outputs": [],
			"stateMutability": "nonpayable",
			"type": "function"
		},
		{
			"inputs": [
				{
					"internalType": "bytes32",
					"name": "role",
					"type": "bytes32"
				},
				{
					"internalType": "address",
					"name": "account",
					"type": "address"
				}
			],
			"name": "hasRole",
			"outputs": [
				{
					"internalType": "bool",
					"name": "",
					"type": "bool"
				}
			],
			"stateMutability": "view",
			"type": "function"
		},
		{
			"inputs": [
				{
					"internalType": "address",
					"name": "to",
					"type": "address"
				},
				{
					"internalType": "uint256",
					"name": "amount",
					"type": "uint256"
				}
			],
			"name": "mint",
			"outputs": [],
			"stateMutability": "nonpayable",
			"type": "function"
		},
		{
			"inputs": [
				{
					"internalType": "string",
					"name": "name_",
					"type": "string"
				},
				{
					"internalType": "string",
					"name": "uri_",
					"type": "string"
				}
			],
			"name": "mintNFT",
			"outputs": [],
			"stateMutability": "nonpayable",
			"type": "function"
		},
		{
			"inputs": [],
			"name": "name",
			"outputs": [
				{
					"internalType": "string",
					"name": "",
					"type": "string"
				}
			],
			"stateMutability": "view",
			"type": "function"
		},
		{
			"inputs": [],
			"name": "nftCounter",
			"outputs": [
				{
					"internalType": "uint256",
					"name": "",
					"type": "uint256"
				}
			],
			"stateMutability": "view",
			"type": "function"
		},
		{
			"inputs": [
				{
					"internalType": "uint256",
					"name": "",
					"type": "uint256"
				}
			],
			"name": "nfts",
			"outputs": [
				{
					"internalType": "string",
					"name": "name",
					"type": "string"
				},
				{
					"internalType": "string",
					"name": "uri",
					"type": "string"
				},
				{
					"internalType": "bool",
					"name": "exists",
					"type": "bool"
				}
			],
			"stateMutability": "view",
			"type": "function"
		},
		{
			"inputs": [],
			"name": "pause",
			"outputs": [],
			"stateMutability": "nonpayable",
			"type": "function"
		},
		{
			"inputs": [],
			"name": "paused",
			"outputs": [
				{
					"internalType": "bool",
					"name": "",
					"type": "bool"
				}
			],
			"stateMutability": "view",
			"type": "function"
		},
		{
			"inputs": [
				{
					"internalType": "bytes32",
					"name": "role",
					"type": "bytes32"
				},
				{
					"internalType": "address",
					"name": "callerConfirmation",
					"type": "address"
				}
			],
			"name": "renounceRole",
			"outputs": [],
			"stateMutability": "nonpayable",
			"type": "function"
		},
		{
			"inputs": [
				{
					"internalType": "bytes32",
					"name": "role",
					"type": "bytes32"
				},
				{
					"internalType": "address",
					"name": "account",
					"type": "address"
				}
			],
			"name": "revokeRole",
			"outputs": [],
			"stateMutability": "nonpayable",
			"type": "function"
		},
		{
			"inputs": [
				{
					"internalType": "address",
					"name": "",
					"type": "address"
				}
			],
			"name": "rewardsClaimed",
			"outputs": [
				{
					"internalType": "uint256",
					"name": "",
					"type": "uint256"
				}
			],
			"stateMutability": "view",
			"type": "function"
		},
		{
			"inputs": [
				{
					"internalType": "uint256",
					"name": "value",
					"type": "uint256"
				}
			],
			"name": "stake",
			"outputs": [],
			"stateMutability": "nonpayable",
			"type": "function"
		},
		{
			"inputs": [
				{
					"internalType": "address",
					"name": "",
					"type": "address"
				}
			],
			"name": "stakedBalance",
			"outputs": [
				{
					"internalType": "uint256",
					"name": "",
					"type": "uint256"
				}
			],
			"stateMutability": "view",
			"type": "function"
		},
		{
			"inputs": [
				{
					"internalType": "bytes4",
					"name": "interfaceId",
					"type": "bytes4"
				}
			],
			"name": "supportsInterface",
			"outputs": [
				{
					"internalType": "bool",
					"name": "",
					"type": "bool"
				}
			],
			"stateMutability": "view",
			"type": "function"
		},
		{
			"inputs": [],
			"name": "symbol",
			"outputs": [
				{
					"internalType": "string",
					"name": "",
					"type": "string"
				}
			],
			"stateMutability": "view",
			"type": "function"
		},
		{
			"inputs": [],
			"name": "totalSupply",
			"outputs": [
				{
					"internalType": "uint256",
					"name": "",
					"type": "uint256"
				}
			],
			"stateMutability": "view",
			"type": "function"
		},
		{
			"inputs": [],
			"name": "totalVotes",
			"outputs": [
				{
					"internalType": "uint256",
					"name": "",
					"type": "uint256"
				}
			],
			"stateMutability": "view",
			"type": "function"
		},
		{
			"inputs": [
				{
					"internalType": "address",
					"name": "to",
					"type": "address"
				},
				{
					"internalType": "uint256",
					"name": "value",
					"type": "uint256"
				}
			],
			"name": "transfer",
			"outputs": [
				{
					"internalType": "bool",
					"name": "success",
					"type": "bool"
				}
			],
			"stateMutability": "nonpayable",
			"type": "function"
		},
		{
			"inputs": [],
			"name": "treasury",
			"outputs": [
				{
					"internalType": "address",
					"name": "",
					"type": "address"
				}
			],
			"stateMutability": "view",
			"type": "function"
		},
		{
			"inputs": [],
			"name": "unpause",
			"outputs": [],
			"stateMutability": "nonpayable",
			"type": "function"
		},
		{
			"inputs": [
				{
					"internalType": "uint256",
					"name": "value",
					"type": "uint256"
				}
			],
			"name": "unstake",
			"outputs": [],
			"stateMutability": "nonpayable",
			"type": "function"
		},
		{
			"inputs": [
				{
					"internalType": "uint256",
					"name": "proposalId",
					"type": "uint256"
				},
				{
					"internalType": "uint256",
					"name": "weight",
					"type": "uint256"
				}
			],
			"name": "vote",
			"outputs": [],
			"stateMutability": "nonpayable",
			"type": "function"
		},
		{
			"inputs": [
				{
					"internalType": "address",
					"name": "",
					"type": "address"
				},
				{
					"internalType": "uint256",
					"name": "",
					"type": "uint256"
				}
			],
			"name": "votes",
			"outputs": [
				{
					"internalType": "uint256",
					"name": "",
					"type": "uint256"
				}
			],
			"stateMutability": "view",
			"type": "function"
		}
	]
}